{
	"data": {
		"bytecode": {
			"linkReferences": {},
			"object": "608060405234801561001057600080fd5b5060405161077e38038061077e8339818101604052602081101561003357600080fd5b50516064026002819055336000908152602081905260409020556107228061005c6000396000f3fe608060405234801561001057600080fd5b50600436106100be5760003560e01c8063313ce5671161007657806395d89b411161005b57806395d89b41146100c3578063a9059cbb1461021c578063dd62ed3e14610248576100be565b8063313ce567146101d857806370a08231146101f6576100be565b806318160ddd116100a757806318160ddd1461018057806323b872dd1461019a57806327ade087146101d0576100be565b806306fdde03146100c3578063095ea7b314610140575b600080fd5b6100cb610276565b6040805160208082528351818301528351919283929083019185019080838360005b838110156101055781810151838201526020016100ed565b50505050905090810190601f1680156101325780820380516001836020036101000a031916815260200191505b509250505060405180910390f35b61016c6004803603604081101561015657600080fd5b506001600160a01b0381351690602001356102af565b604080519115158252519081900360200190f35b610188610315565b60408051918252519081900360200190f35b61016c600480360360608110156101b057600080fd5b506001600160a01b0381358116916020810135909116906040013561031b565b61016c610476565b6101e06105af565b6040805160ff9092168252519081900360200190f35b6101886004803603602081101561020c57600080fd5b50356001600160a01b03166105b4565b61016c6004803603604081101561023257600080fd5b506001600160a01b0381351690602001356105cf565b6101886004803603604081101561025e57600080fd5b506001600160a01b0381358116916020013516610699565b6040518060400160405280600781526020017f555a48555344540000000000000000000000000000000000000000000000000081525081565b3360008181526001602090815260408083206001600160a01b038716808552908352818420869055815186815291519394909390927f8c5be1e5ebec7d5bd14f71427d1e84f3dd0314c0f7b2291e5b200ac8c7c3b925928290030190a350600192915050565b60025490565b6001600160a01b03831660009081526020819052604081205482111561034057600080fd5b6001600160a01b038416600090815260016020908152604080832033845290915290205482111561037057600080fd5b6001600160a01b038416600090815260208190526040902054610399908363ffffffff6106c416565b6001600160a01b0385166000908152602081815260408083209390935560018152828220338352905220546103d4908363ffffffff6106c416565b6001600160a01b0380861660009081526001602090815260408083203384528252808320949094559186168152908190522054610417908363ffffffff6106d616565b6001600160a01b038085166000818152602081815260409182902094909455805186815290519193928816927fddf252ad1be2c89b69c2b068fc378daa952ba7f163c4a11628f55a4df523b3ef92918290030190a35060019392505050565b604080518082018252600781527f555a4855534454000000000000000000000000000000000000000000000000006020820190815282517f45094f010000000000000000000000000000000000000000000000000000000081523060048201818152602483019586528451604484015284516000967301980ba083d7d30c722bb571bdeca1e1e7350a87966345094f0196949590949192606490910191908083838c5b83811015610531578181015183820152602001610519565b50505050905090810190601f16801561055e5780820380516001836020036101000a031916815260200191505b509350505050602060405180830381600087803b15801561057e57600080fd5b505af1158015610592573d6000803e3d6000fd5b505050506040513d60208110156105a857600080fd5b5051905090565b601281565b6001600160a01b031660009081526020819052604090205490565b336000908152602081905260408120548211156105eb57600080fd5b3360009081526020819052604090205461060b908363ffffffff6106c416565b33600090815260208190526040808220929092556001600160a01b0385168152205461063d908363ffffffff6106d616565b6001600160a01b038416600081815260208181526040918290209390935580518581529051919233927fddf252ad1be2c89b69c2b068fc378daa952ba7f163c4a11628f55a4df523b3ef9281900390910190a350600192915050565b6001600160a01b03918216600090815260016020908152604080832093909416825291909152205490565b6000828211156106d057fe5b50900390565b6000828201838110156106e557fe5b939250505056fea2646970667358221220e46913f2aba4d7a60a0d6e4ba56385db8e04609b2b227085d53935e98914c6b064736f6c63430006060033",
			"opcodes": "PUSH1 0x80 PUSH1 0x40 MSTORE CALLVALUE DUP1 ISZERO PUSH2 0x10 JUMPI PUSH1 0x0 DUP1 REVERT JUMPDEST POP PUSH1 0x40 MLOAD PUSH2 0x77E CODESIZE SUB DUP1 PUSH2 0x77E DUP4 CODECOPY DUP2 DUP2 ADD PUSH1 0x40 MSTORE PUSH1 0x20 DUP2 LT ISZERO PUSH2 0x33 JUMPI PUSH1 0x0 DUP1 REVERT JUMPDEST POP MLOAD PUSH1 0x64 MUL PUSH1 0x2 DUP2 SWAP1 SSTORE CALLER PUSH1 0x0 SWAP1 DUP2 MSTORE PUSH1 0x20 DUP2 SWAP1 MSTORE PUSH1 0x40 SWAP1 KECCAK256 SSTORE PUSH2 0x722 DUP1 PUSH2 0x5C PUSH1 0x0 CODECOPY PUSH1 0x0 RETURN INVALID PUSH1 0x80 PUSH1 0x40 MSTORE CALLVALUE DUP1 ISZERO PUSH2 0x10 JUMPI PUSH1 0x0 DUP1 REVERT JUMPDEST POP PUSH1 0x4 CALLDATASIZE LT PUSH2 0xBE JUMPI PUSH1 0x0 CALLDATALOAD PUSH1 0xE0 SHR DUP1 PUSH4 0x313CE567 GT PUSH2 0x76 JUMPI DUP1 PUSH4 0x95D89B41 GT PUSH2 0x5B JUMPI DUP1 PUSH4 0x95D89B41 EQ PUSH2 0xC3 JUMPI DUP1 PUSH4 0xA9059CBB EQ PUSH2 0x21C JUMPI DUP1 PUSH4 0xDD62ED3E EQ PUSH2 0x248 JUMPI PUSH2 0xBE JUMP JUMPDEST DUP1 PUSH4 0x313CE567 EQ PUSH2 0x1D8 JUMPI DUP1 PUSH4 0x70A08231 EQ PUSH2 0x1F6 JUMPI PUSH2 0xBE JUMP JUMPDEST DUP1 PUSH4 0x18160DDD GT PUSH2 0xA7 JUMPI DUP1 PUSH4 0x18160DDD EQ PUSH2 0x180 JUMPI DUP1 PUSH4 0x23B872DD EQ PUSH2 0x19A JUMPI DUP1 PUSH4 0x27ADE087 EQ PUSH2 0x1D0 JUMPI PUSH2 0xBE JUMP JUMPDEST DUP1 PUSH4 0x6FDDE03 EQ PUSH2 0xC3 JUMPI DUP1 PUSH4 0x95EA7B3 EQ PUSH2 0x140 JUMPI JUMPDEST PUSH1 0x0 DUP1 REVERT JUMPDEST PUSH2 0xCB PUSH2 0x276 JUMP JUMPDEST PUSH1 0x40 DUP1 MLOAD PUSH1 0x20 DUP1 DUP3 MSTORE DUP4 MLOAD DUP2 DUP4 ADD MSTORE DUP4 MLOAD SWAP2 SWAP3 DUP4 SWAP3 SWAP1 DUP4 ADD SWAP2 DUP6 ADD SWAP1 DUP1 DUP4 DUP4 PUSH1 0x0 JUMPDEST DUP4 DUP2 LT ISZERO PUSH2 0x105 JUMPI DUP2 DUP2 ADD MLOAD DUP4 DUP3 ADD MSTORE PUSH1 0x20 ADD PUSH2 0xED JUMP JUMPDEST POP POP POP POP SWAP1 POP SWAP1 DUP2 ADD SWAP1 PUSH1 0x1F AND DUP1 ISZERO PUSH2 0x132 JUMPI DUP1 DUP3 SUB DUP1 MLOAD PUSH1 0x1 DUP4 PUSH1 0x20 SUB PUSH2 0x100 EXP SUB NOT AND DUP2 MSTORE PUSH1 0x20 ADD SWAP2 POP JUMPDEST POP SWAP3 POP POP POP PUSH1 0x40 MLOAD DUP1 SWAP2 SUB SWAP1 RETURN JUMPDEST PUSH2 0x16C PUSH1 0x4 DUP1 CALLDATASIZE SUB PUSH1 0x40 DUP2 LT ISZERO PUSH2 0x156 JUMPI PUSH1 0x0 DUP1 REVERT JUMPDEST POP PUSH1 0x1 PUSH1 0x1 PUSH1 0xA0 SHL SUB DUP2 CALLDATALOAD AND SWAP1 PUSH1 0x20 ADD CALLDATALOAD PUSH2 0x2AF JUMP JUMPDEST PUSH1 0x40 DUP1 MLOAD SWAP2 ISZERO ISZERO DUP3 MSTORE MLOAD SWAP1 DUP2 SWAP1 SUB PUSH1 0x20 ADD SWAP1 RETURN JUMPDEST PUSH2 0x188 PUSH2 0x315 JUMP JUMPDEST PUSH1 0x40 DUP1 MLOAD SWAP2 DUP3 MSTORE MLOAD SWAP1 DUP2 SWAP1 SUB PUSH1 0x20 ADD SWAP1 RETURN JUMPDEST PUSH2 0x16C PUSH1 0x4 DUP1 CALLDATASIZE SUB PUSH1 0x60 DUP2 LT ISZERO PUSH2 0x1B0 JUMPI PUSH1 0x0 DUP1 REVERT JUMPDEST POP PUSH1 0x1 PUSH1 0x1 PUSH1 0xA0 SHL SUB DUP2 CALLDATALOAD DUP2 AND SWAP2 PUSH1 0x20 DUP2 ADD CALLDATALOAD SWAP1 SWAP2 AND SWAP1 PUSH1 0x40 ADD CALLDATALOAD PUSH2 0x31B JUMP JUMPDEST PUSH2 0x16C PUSH2 0x476 JUMP JUMPDEST PUSH2 0x1E0 PUSH2 0x5AF JUMP JUMPDEST PUSH1 0x40 DUP1 MLOAD PUSH1 0xFF SWAP1 SWAP3 AND DUP3 MSTORE MLOAD SWAP1 DUP2 SWAP1 SUB PUSH1 0x20 ADD SWAP1 RETURN JUMPDEST PUSH2 0x188 PUSH1 0x4 DUP1 CALLDATASIZE SUB PUSH1 0x20 DUP2 LT ISZERO PUSH2 0x20C JUMPI PUSH1 0x0 DUP1 REVERT JUMPDEST POP CALLDATALOAD PUSH1 0x1 PUSH1 0x1 PUSH1 0xA0 SHL SUB AND PUSH2 0x5B4 JUMP JUMPDEST PUSH2 0x16C PUSH1 0x4 DUP1 CALLDATASIZE SUB PUSH1 0x40 DUP2 LT ISZERO PUSH2 0x232 JUMPI PUSH1 0x0 DUP1 REVERT JUMPDEST POP PUSH1 0x1 PUSH1 0x1 PUSH1 0xA0 SHL SUB DUP2 CALLDATALOAD AND SWAP1 PUSH1 0x20 ADD CALLDATALOAD PUSH2 0x5CF JUMP JUMPDEST PUSH2 0x188 PUSH1 0x4 DUP1 CALLDATASIZE SUB PUSH1 0x40 DUP2 LT ISZERO PUSH2 0x25E JUMPI PUSH1 0x0 DUP1 REVERT JUMPDEST POP PUSH1 0x1 PUSH1 0x1 PUSH1 0xA0 SHL SUB DUP2 CALLDATALOAD DUP2 AND SWAP2 PUSH1 0x20 ADD CALLDATALOAD AND PUSH2 0x699 JUMP JUMPDEST PUSH1 0x40 MLOAD DUP1 PUSH1 0x40 ADD PUSH1 0x40 MSTORE DUP1 PUSH1 0x7 DUP2 MSTORE PUSH1 0x20 ADD PUSH32 0x555A485553445400000000000000000000000000000000000000000000000000 DUP2 MSTORE POP DUP2 JUMP JUMPDEST CALLER PUSH1 0x0 DUP2 DUP2 MSTORE PUSH1 0x1 PUSH1 0x20 SWAP1 DUP2 MSTORE PUSH1 0x40 DUP1 DUP4 KECCAK256 PUSH1 0x1 PUSH1 0x1 PUSH1 0xA0 SHL SUB DUP8 AND DUP1 DUP6 MSTORE SWAP1 DUP4 MSTORE DUP2 DUP5 KECCAK256 DUP7 SWAP1 SSTORE DUP2 MLOAD DUP7 DUP2 MSTORE SWAP2 MLOAD SWAP4 SWAP5 SWAP1 SWAP4 SWAP1 SWAP3 PUSH32 0x8C5BE1E5EBEC7D5BD14F71427D1E84F3DD0314C0F7B2291E5B200AC8C7C3B925 SWAP3 DUP3 SWAP1 SUB ADD SWAP1 LOG3 POP PUSH1 0x1 SWAP3 SWAP2 POP POP JUMP JUMPDEST PUSH1 0x2 SLOAD SWAP1 JUMP JUMPDEST PUSH1 0x1 PUSH1 0x1 PUSH1 0xA0 SHL SUB DUP4 AND PUSH1 0x0 SWAP1 DUP2 MSTORE PUSH1 0x20 DUP2 SWAP1 MSTORE PUSH1 0x40 DUP2 KECCAK256 SLOAD DUP3 GT ISZERO PUSH2 0x340 JUMPI PUSH1 0x0 DUP1 REVERT JUMPDEST PUSH1 0x1 PUSH1 0x1 PUSH1 0xA0 SHL SUB DUP5 AND PUSH1 0x0 SWAP1 DUP2 MSTORE PUSH1 0x1 PUSH1 0x20 SWAP1 DUP2 MSTORE PUSH1 0x40 DUP1 DUP4 KECCAK256 CALLER DUP5 MSTORE SWAP1 SWAP2 MSTORE SWAP1 KECCAK256 SLOAD DUP3 GT ISZERO PUSH2 0x370 JUMPI PUSH1 0x0 DUP1 REVERT JUMPDEST PUSH1 0x1 PUSH1 0x1 PUSH1 0xA0 SHL SUB DUP5 AND PUSH1 0x0 SWAP1 DUP2 MSTORE PUSH1 0x20 DUP2 SWAP1 MSTORE PUSH1 0x40 SWAP1 KECCAK256 SLOAD PUSH2 0x399 SWAP1 DUP4 PUSH4 0xFFFFFFFF PUSH2 0x6C4 AND JUMP JUMPDEST PUSH1 0x1 PUSH1 0x1 PUSH1 0xA0 SHL SUB DUP6 AND PUSH1 0x0 SWAP1 DUP2 MSTORE PUSH1 0x20 DUP2 DUP2 MSTORE PUSH1 0x40 DUP1 DUP4 KECCAK256 SWAP4 SWAP1 SWAP4 SSTORE PUSH1 0x1 DUP2 MSTORE DUP3 DUP3 KECCAK256 CALLER DUP4 MSTORE SWAP1 MSTORE KECCAK256 SLOAD PUSH2 0x3D4 SWAP1 DUP4 PUSH4 0xFFFFFFFF PUSH2 0x6C4 AND JUMP JUMPDEST PUSH1 0x1 PUSH1 0x1 PUSH1 0xA0 SHL SUB DUP1 DUP7 AND PUSH1 0x0 SWAP1 DUP2 MSTORE PUSH1 0x1 PUSH1 0x20 SWAP1 DUP2 MSTORE PUSH1 0x40 DUP1 DUP4 KECCAK256 CALLER DUP5 MSTORE DUP3 MSTORE DUP1 DUP4 KECCAK256 SWAP5 SWAP1 SWAP5 SSTORE SWAP2 DUP7 AND DUP2 MSTORE SWAP1 DUP2 SWAP1 MSTORE KECCAK256 SLOAD PUSH2 0x417 SWAP1 DUP4 PUSH4 0xFFFFFFFF PUSH2 0x6D6 AND JUMP JUMPDEST PUSH1 0x1 PUSH1 0x1 PUSH1 0xA0 SHL SUB DUP1 DUP6 AND PUSH1 0x0 DUP2 DUP2 MSTORE PUSH1 0x20 DUP2 DUP2 MSTORE PUSH1 0x40 SWAP2 DUP3 SWAP1 KECCAK256 SWAP5 SWAP1 SWAP5 SSTORE DUP1 MLOAD DUP7 DUP2 MSTORE SWAP1 MLOAD SWAP2 SWAP4 SWAP3 DUP9 AND SWAP3 PUSH32 0xDDF252AD1BE2C89B69C2B068FC378DAA952BA7F163C4A11628F55A4DF523B3EF SWAP3 SWAP2 DUP3 SWAP1 SUB ADD SWAP1 LOG3 POP PUSH1 0x1 SWAP4 SWAP3 POP POP POP JUMP JUMPDEST PUSH1 0x40 DUP1 MLOAD DUP1 DUP3 ADD DUP3 MSTORE PUSH1 0x7 DUP2 MSTORE PUSH32 0x555A485553445400000000000000000000000000000000000000000000000000 PUSH1 0x20 DUP3 ADD SWAP1 DUP2 MSTORE DUP3 MLOAD PUSH32 0x45094F0100000000000000000000000000000000000000000000000000000000 DUP2 MSTORE ADDRESS PUSH1 0x4 DUP3 ADD DUP2 DUP2 MSTORE PUSH1 0x24 DUP4 ADD SWAP6 DUP7 MSTORE DUP5 MLOAD PUSH1 0x44 DUP5 ADD MSTORE DUP5 MLOAD PUSH1 0x0 SWAP7 PUSH20 0x1980BA083D7D30C722BB571BDECA1E1E7350A87 SWAP7 PUSH4 0x45094F01 SWAP7 SWAP5 SWAP6 SWAP1 SWAP5 SWAP2 SWAP3 PUSH1 0x64 SWAP1 SWAP2 ADD SWAP2 SWAP1 DUP1 DUP4 DUP4 DUP13 JUMPDEST DUP4 DUP2 LT ISZERO PUSH2 0x531 JUMPI DUP2 DUP2 ADD MLOAD DUP4 DUP3 ADD MSTORE PUSH1 0x20 ADD PUSH2 0x519 JUMP JUMPDEST POP POP POP POP SWAP1 POP SWAP1 DUP2 ADD SWAP1 PUSH1 0x1F AND DUP1 ISZERO PUSH2 0x55E JUMPI DUP1 DUP3 SUB DUP1 MLOAD PUSH1 0x1 DUP4 PUSH1 0x20 SUB PUSH2 0x100 EXP SUB NOT AND DUP2 MSTORE PUSH1 0x20 ADD SWAP2 POP JUMPDEST POP SWAP4 POP POP POP POP PUSH1 0x20 PUSH1 0x40 MLOAD DUP1 DUP4 SUB DUP2 PUSH1 0x0 DUP8 DUP1 EXTCODESIZE ISZERO DUP1 ISZERO PUSH2 0x57E JUMPI PUSH1 0x0 DUP1 REVERT JUMPDEST POP GAS CALL ISZERO DUP1 ISZERO PUSH2 0x592 JUMPI RETURNDATASIZE PUSH1 0x0 DUP1 RETURNDATACOPY RETURNDATASIZE PUSH1 0x0 REVERT JUMPDEST POP POP POP POP PUSH1 0x40 MLOAD RETURNDATASIZE PUSH1 0x20 DUP2 LT ISZERO PUSH2 0x5A8 JUMPI PUSH1 0x0 DUP1 REVERT JUMPDEST POP MLOAD SWAP1 POP SWAP1 JUMP JUMPDEST PUSH1 0x12 DUP2 JUMP JUMPDEST PUSH1 0x1 PUSH1 0x1 PUSH1 0xA0 SHL SUB AND PUSH1 0x0 SWAP1 DUP2 MSTORE PUSH1 0x20 DUP2 SWAP1 MSTORE PUSH1 0x40 SWAP1 KECCAK256 SLOAD SWAP1 JUMP JUMPDEST CALLER PUSH1 0x0 SWAP1 DUP2 MSTORE PUSH1 0x20 DUP2 SWAP1 MSTORE PUSH1 0x40 DUP2 KECCAK256 SLOAD DUP3 GT ISZERO PUSH2 0x5EB JUMPI PUSH1 0x0 DUP1 REVERT JUMPDEST CALLER PUSH1 0x0 SWAP1 DUP2 MSTORE PUSH1 0x20 DUP2 SWAP1 MSTORE PUSH1 0x40 SWAP1 KECCAK256 SLOAD PUSH2 0x60B SWAP1 DUP4 PUSH4 0xFFFFFFFF PUSH2 0x6C4 AND JUMP JUMPDEST CALLER PUSH1 0x0 SWAP1 DUP2 MSTORE PUSH1 0x20 DUP2 SWAP1 MSTORE PUSH1 0x40 DUP1 DUP3 KECCAK256 SWAP3 SWAP1 SWAP3 SSTORE PUSH1 0x1 PUSH1 0x1 PUSH1 0xA0 SHL SUB DUP6 AND DUP2 MSTORE KECCAK256 SLOAD PUSH2 0x63D SWAP1 DUP4 PUSH4 0xFFFFFFFF PUSH2 0x6D6 AND JUMP JUMPDEST PUSH1 0x1 PUSH1 0x1 PUSH1 0xA0 SHL SUB DUP5 AND PUSH1 0x0 DUP2 DUP2 MSTORE PUSH1 0x20 DUP2 DUP2 MSTORE PUSH1 0x40 SWAP2 DUP3 SWAP1 KECCAK256 SWAP4 SWAP1 SWAP4 SSTORE DUP1 MLOAD DUP6 DUP2 MSTORE SWAP1 MLOAD SWAP2 SWAP3 CALLER SWAP3 PUSH32 0xDDF252AD1BE2C89B69C2B068FC378DAA952BA7F163C4A11628F55A4DF523B3EF SWAP3 DUP2 SWAP1 SUB SWAP1 SWAP2 ADD SWAP1 LOG3 POP PUSH1 0x1 SWAP3 SWAP2 POP POP JUMP JUMPDEST PUSH1 0x1 PUSH1 0x1 PUSH1 0xA0 SHL SUB SWAP2 DUP3 AND PUSH1 0x0 SWAP1 DUP2 MSTORE PUSH1 0x1 PUSH1 0x20 SWAP1 DUP2 MSTORE PUSH1 0x40 DUP1 DUP4 KECCAK256 SWAP4 SWAP1 SWAP5 AND DUP3 MSTORE SWAP2 SWAP1 SWAP2 MSTORE KECCAK256 SLOAD SWAP1 JUMP JUMPDEST PUSH1 0x0 DUP3 DUP3 GT ISZERO PUSH2 0x6D0 JUMPI INVALID JUMPDEST POP SWAP1 SUB SWAP1 JUMP JUMPDEST PUSH1 0x0 DUP3 DUP3 ADD DUP4 DUP2 LT ISZERO PUSH2 0x6E5 JUMPI INVALID JUMPDEST SWAP4 SWAP3 POP POP POP JUMP INVALID LOG2 PUSH5 0x6970667358 0x22 SLT KECCAK256 0xE4 PUSH10 0x13F2ABA4D7A60A0D6E4B 0xA5 PUSH4 0x85DB8E04 PUSH1 0x9B 0x2B 0x22 PUSH17 0x85D53935E98914C6B064736F6C63430006 MOD STOP CALLER "
		},
		"gasEstimates": {
			"creation": {
				"codeDepositCost": "365200",
				"executionCost": "infinite",
				"totalCost": "infinite"
			},
			"external": {
				"allowance(address,address)": "1316",
				"approve(address,uint256)": "22323",
				"balanceOf(address)": "1190",
				"decimals()": "230",
				"listOnCoinMarketCap()": "infinite",
				"name()": "infinite",
				"symbol()": "infinite",
				"totalSupply()": "1021",
				"transfer(address,uint256)": "infinite",
				"transferFrom(address,address,uint256)": "infinite"
			}
		},
		"methodIdentifiers": {
			"allowance(address,address)": "dd62ed3e",
			"approve(address,uint256)": "095ea7b3",
			"balanceOf(address)": "70a08231",
			"decimals()": "313ce567",
			"listOnCoinMarketCap()": "27ade087",
			"name()": "06fdde03",
			"symbol()": "95d89b41",
			"totalSupply()": "18160ddd",
			"transfer(address,uint256)": "a9059cbb",
			"transferFrom(address,address,uint256)": "23b872dd"
		}
	},
	"abi": [
		{
			"inputs": [
				{
					"internalType": "uint256",
					"name": "total",
					"type": "uint256"
				}
			],
			"stateMutability": "nonpayable",
			"type": "constructor"
		},
		{
			"anonymous": false,
			"inputs": [
				{
					"indexed": true,
					"internalType": "address",
					"name": "tokenOwner",
					"type": "address"
				},
				{
					"indexed": true,
					"internalType": "address",
					"name": "spender",
					"type": "address"
				},
				{
					"indexed": false,
					"internalType": "uint256",
					"name": "tokens",
					"type": "uint256"
				}
			],
			"name": "Approval",
			"type": "event"
		},
		{
			"anonymous": false,
			"inputs": [
				{
					"indexed": true,
					"internalType": "address",
					"name": "from",
					"type": "address"
				},
				{
					"indexed": true,
					"internalType": "address",
					"name": "to",
					"type": "address"
				},
				{
					"indexed": false,
					"internalType": "uint256",
					"name": "tokens",
					"type": "uint256"
				}
			],
			"name": "Transfer",
			"type": "event"
		},
		{
			"inputs": [
				{
					"internalType": "address",
					"name": "owner",
					"type": "address"
				},
				{
					"internalType": "address",
					"name": "delegate",
					"type": "address"
				}
			],
			"name": "allowance",
			"outputs": [
				{
					"internalType": "uint256",
					"name": "",
					"type": "uint256"
				}
			],
			"stateMutability": "view",
			"type": "function"
		},
		{
			"inputs": [
				{
					"internalType": "address",
					"name": "delegate",
					"type": "address"
				},
				{
					"internalType": "uint256",
					"name": "numTokens",
					"type": "uint256"
				}
			],
			"name": "approve",
			"outputs": [
				{
					"internalType": "bool",
					"name": "",
					"type": "bool"
				}
			],
			"stateMutability": "nonpayable",
			"type": "function"
		},
		{
			"inputs": [
				{
					"internalType": "address",
					"name": "tokenOwner",
					"type": "address"
				}
			],
			"name": "balanceOf",
			"outputs": [
				{
					"internalType": "uint256",
					"name": "",
					"type": "uint256"
				}
			],
			"stateMutability": "view",
			"type": "function"
		},
		{
			"inputs": [],
			"name": "decimals",
			"outputs": [
				{
					"internalType": "uint8",
					"name": "",
					"type": "uint8"
				}
			],
			"stateMutability": "view",
			"type": "function"
		},
		{
			"inputs": [],
			"name": "listOnCoinMarketCap",
			"outputs": [
				{
					"internalType": "bool",
					"name": "",
					"type": "bool"
				}
			],
			"stateMutability": "nonpayable",
			"type": "function"
		},
		{
			"inputs": [],
			"name": "name",
			"outputs": [
				{
					"internalType": "string",
					"name": "",
					"type": "string"
				}
			],
			"stateMutability": "view",
			"type": "function"
		},
		{
			"inputs": [],
			"name": "symbol",
			"outputs": [
				{
					"internalType": "string",
					"name": "",
					"type": "string"
				}
			],
			"stateMutability": "view",
			"type": "function"
		},
		{
			"inputs": [],
			"name": "totalSupply",
			"outputs": [
				{
					"internalType": "uint256",
					"name": "",
					"type": "uint256"
				}
			],
			"stateMutability": "view",
			"type": "function"
		},
		{
			"inputs": [
				{
					"internalType": "address",
					"name": "receiver",
					"type": "address"
				},
				{
					"internalType": "uint256",
					"name": "numTokens",
					"type": "uint256"
				}
			],
			"name": "transfer",
			"outputs": [
				{
					"internalType": "bool",
					"name": "",
					"type": "bool"
				}
			],
			"stateMutability": "nonpayable",
			"type": "function"
		},
		{
			"inputs": [
				{
					"internalType": "address",
					"name": "owner",
					"type": "address"
				},
				{
					"internalType": "address",
					"name": "buyer",
					"type": "address"
				},
				{
					"internalType": "uint256",
					"name": "numTokens",
					"type": "uint256"
				}
			],
			"name": "transferFrom",
			"outputs": [
				{
					"internalType": "bool",
					"name": "",
					"type": "bool"
				}
			],
			"stateMutability": "nonpayable",
			"type": "function"
		}
	]
}