{
	"data": {
		"bytecode": {
			"linkReferences": {},
			"object": "608060405234801561001057600080fd5b50610393806100206000396000f3fe608060405234801561001057600080fd5b506004361061002b5760003560e01c806361c8112014610030575b600080fd5b61009c6004803603606081101561004657600080fd5b81019080803573ffffffffffffffffffffffffffffffffffffffff169060200190929190803573ffffffffffffffffffffffffffffffffffffffff1690602001909291908035906020019092919050505061009e565b005b600033905060003090506000674563918244f4000090508573ffffffffffffffffffffffffffffffffffffffff1663a9059cbb84836040518363ffffffff1660e01b8152600401808373ffffffffffffffffffffffffffffffffffffffff1673ffffffffffffffffffffffffffffffffffffffff16815260200182815260200192505050602060405180830381600087803b15801561013c57600080fd5b505af1158015610150573d6000803e3d6000fd5b505050506040513d602081101561016657600080fd5b81019080805190602001909291905050506101e9576040517f08c379a00000000000000000000000000000000000000000000000000000000081526004018080602001828103825260208152602001807f746f6b656e20746f20626f72726f773a205472616e73666572206661696c656481525060200191505060405180910390fd5b8473ffffffffffffffffffffffffffffffffffffffff166323b872dd8484876040518463ffffffff1660e01b8152600401808473ffffffffffffffffffffffffffffffffffffffff1673ffffffffffffffffffffffffffffffffffffffff1681526020018373ffffffffffffffffffffffffffffffffffffffff1673ffffffffffffffffffffffffffffffffffffffff1681526020018281526020019350505050602060405180830381600087803b1580156102a457600080fd5b505af11580156102b8573d6000803e3d6000fd5b505050506040513d60208110156102ce57600080fd5b8101908080519060200190929190505050610334576040517f08c379a000000000000000000000000000000000000000000000000000000000815260040180806020018281038252602181526020018061033d6021913960400191505060405180910390fd5b50505050505056fe746f6b656e4173436f6c6c61746572616c205472616e73666572206661696c6564a26469706673582212205490b8bd33bb5823c3448396edc47efd0c73b8016e21cefca7c7b42fafe59d5a64736f6c63430006060033",
			"opcodes": "PUSH1 0x80 PUSH1 0x40 MSTORE CALLVALUE DUP1 ISZERO PUSH2 0x10 JUMPI PUSH1 0x0 DUP1 REVERT JUMPDEST POP PUSH2 0x393 DUP1 PUSH2 0x20 PUSH1 0x0 CODECOPY PUSH1 0x0 RETURN INVALID PUSH1 0x80 PUSH1 0x40 MSTORE CALLVALUE DUP1 ISZERO PUSH2 0x10 JUMPI PUSH1 0x0 DUP1 REVERT JUMPDEST POP PUSH1 0x4 CALLDATASIZE LT PUSH2 0x2B JUMPI PUSH1 0x0 CALLDATALOAD PUSH1 0xE0 SHR DUP1 PUSH4 0x61C81120 EQ PUSH2 0x30 JUMPI JUMPDEST PUSH1 0x0 DUP1 REVERT JUMPDEST PUSH2 0x9C PUSH1 0x4 DUP1 CALLDATASIZE SUB PUSH1 0x60 DUP2 LT ISZERO PUSH2 0x46 JUMPI PUSH1 0x0 DUP1 REVERT JUMPDEST DUP2 ADD SWAP1 DUP1 DUP1 CALLDATALOAD PUSH20 0xFFFFFFFFFFFFFFFFFFFFFFFFFFFFFFFFFFFFFFFF AND SWAP1 PUSH1 0x20 ADD SWAP1 SWAP3 SWAP2 SWAP1 DUP1 CALLDATALOAD PUSH20 0xFFFFFFFFFFFFFFFFFFFFFFFFFFFFFFFFFFFFFFFF AND SWAP1 PUSH1 0x20 ADD SWAP1 SWAP3 SWAP2 SWAP1 DUP1 CALLDATALOAD SWAP1 PUSH1 0x20 ADD SWAP1 SWAP3 SWAP2 SWAP1 POP POP POP PUSH2 0x9E JUMP JUMPDEST STOP JUMPDEST PUSH1 0x0 CALLER SWAP1 POP PUSH1 0x0 ADDRESS SWAP1 POP PUSH1 0x0 PUSH8 0x4563918244F40000 SWAP1 POP DUP6 PUSH20 0xFFFFFFFFFFFFFFFFFFFFFFFFFFFFFFFFFFFFFFFF AND PUSH4 0xA9059CBB DUP5 DUP4 PUSH1 0x40 MLOAD DUP4 PUSH4 0xFFFFFFFF AND PUSH1 0xE0 SHL DUP2 MSTORE PUSH1 0x4 ADD DUP1 DUP4 PUSH20 0xFFFFFFFFFFFFFFFFFFFFFFFFFFFFFFFFFFFFFFFF AND PUSH20 0xFFFFFFFFFFFFFFFFFFFFFFFFFFFFFFFFFFFFFFFF AND DUP2 MSTORE PUSH1 0x20 ADD DUP3 DUP2 MSTORE PUSH1 0x20 ADD SWAP3 POP POP POP PUSH1 0x20 PUSH1 0x40 MLOAD DUP1 DUP4 SUB DUP2 PUSH1 0x0 DUP8 DUP1 EXTCODESIZE ISZERO DUP1 ISZERO PUSH2 0x13C JUMPI PUSH1 0x0 DUP1 REVERT JUMPDEST POP GAS CALL ISZERO DUP1 ISZERO PUSH2 0x150 JUMPI RETURNDATASIZE PUSH1 0x0 DUP1 RETURNDATACOPY RETURNDATASIZE PUSH1 0x0 REVERT JUMPDEST POP POP POP POP PUSH1 0x40 MLOAD RETURNDATASIZE PUSH1 0x20 DUP2 LT ISZERO PUSH2 0x166 JUMPI PUSH1 0x0 DUP1 REVERT JUMPDEST DUP2 ADD SWAP1 DUP1 DUP1 MLOAD SWAP1 PUSH1 0x20 ADD SWAP1 SWAP3 SWAP2 SWAP1 POP POP POP PUSH2 0x1E9 JUMPI PUSH1 0x40 MLOAD PUSH32 0x8C379A000000000000000000000000000000000000000000000000000000000 DUP2 MSTORE PUSH1 0x4 ADD DUP1 DUP1 PUSH1 0x20 ADD DUP3 DUP2 SUB DUP3 MSTORE PUSH1 0x20 DUP2 MSTORE PUSH1 0x20 ADD DUP1 PUSH32 0x746F6B656E20746F20626F72726F773A205472616E73666572206661696C6564 DUP2 MSTORE POP PUSH1 0x20 ADD SWAP2 POP POP PUSH1 0x40 MLOAD DUP1 SWAP2 SUB SWAP1 REVERT JUMPDEST DUP5 PUSH20 0xFFFFFFFFFFFFFFFFFFFFFFFFFFFFFFFFFFFFFFFF AND PUSH4 0x23B872DD DUP5 DUP5 DUP8 PUSH1 0x40 MLOAD DUP5 PUSH4 0xFFFFFFFF AND PUSH1 0xE0 SHL DUP2 MSTORE PUSH1 0x4 ADD DUP1 DUP5 PUSH20 0xFFFFFFFFFFFFFFFFFFFFFFFFFFFFFFFFFFFFFFFF AND PUSH20 0xFFFFFFFFFFFFFFFFFFFFFFFFFFFFFFFFFFFFFFFF AND DUP2 MSTORE PUSH1 0x20 ADD DUP4 PUSH20 0xFFFFFFFFFFFFFFFFFFFFFFFFFFFFFFFFFFFFFFFF AND PUSH20 0xFFFFFFFFFFFFFFFFFFFFFFFFFFFFFFFFFFFFFFFF AND DUP2 MSTORE PUSH1 0x20 ADD DUP3 DUP2 MSTORE PUSH1 0x20 ADD SWAP4 POP POP POP POP PUSH1 0x20 PUSH1 0x40 MLOAD DUP1 DUP4 SUB DUP2 PUSH1 0x0 DUP8 DUP1 EXTCODESIZE ISZERO DUP1 ISZERO PUSH2 0x2A4 JUMPI PUSH1 0x0 DUP1 REVERT JUMPDEST POP GAS CALL ISZERO DUP1 ISZERO PUSH2 0x2B8 JUMPI RETURNDATASIZE PUSH1 0x0 DUP1 RETURNDATACOPY RETURNDATASIZE PUSH1 0x0 REVERT JUMPDEST POP POP POP POP PUSH1 0x40 MLOAD RETURNDATASIZE PUSH1 0x20 DUP2 LT ISZERO PUSH2 0x2CE JUMPI PUSH1 0x0 DUP1 REVERT JUMPDEST DUP2 ADD SWAP1 DUP1 DUP1 MLOAD SWAP1 PUSH1 0x20 ADD SWAP1 SWAP3 SWAP2 SWAP1 POP POP POP PUSH2 0x334 JUMPI PUSH1 0x40 MLOAD PUSH32 0x8C379A000000000000000000000000000000000000000000000000000000000 DUP2 MSTORE PUSH1 0x4 ADD DUP1 DUP1 PUSH1 0x20 ADD DUP3 DUP2 SUB DUP3 MSTORE PUSH1 0x21 DUP2 MSTORE PUSH1 0x20 ADD DUP1 PUSH2 0x33D PUSH1 0x21 SWAP2 CODECOPY PUSH1 0x40 ADD SWAP2 POP POP PUSH1 0x40 MLOAD DUP1 SWAP2 SUB SWAP1 REVERT JUMPDEST POP POP POP POP POP POP JUMP INVALID PUSH21 0x6F6B656E4173436F6C6C61746572616C205472616E PUSH20 0x666572206661696C6564A2646970667358221220 SLOAD SWAP1 0xB8 0xBD CALLER 0xBB PC 0x23 0xC3 DIFFICULTY DUP4 SWAP7 0xED 0xC4 PUSH31 0xFD0C73B8016E21CEFCA7C7B42FAFE59D5A64736F6C63430006060033000000 "
		},
		"gasEstimates": {
			"creation": {
				"codeDepositCost": "183000",
				"executionCost": "226",
				"totalCost": "183226"
			},
			"external": {
				"loan(address,address,uint256)": "infinite"
			},
			"internal": {
				"getPriceFromChainlinkOracle(contract IERC20,contract IERC20,uint256)": "infinite",
				"getPriceFromUniswap(contract IERC20,contract IERC20,uint256)": "infinite"
			}
		},
		"methodIdentifiers": {
			"loan(address,address,uint256)": "61c81120"
		}
	},
	"abi": [
		{
			"inputs": [
				{
					"internalType": "address",
					"name": "tokenToBorrow",
					"type": "address"
				},
				{
					"internalType": "address",
					"name": "tokenAsCollateral",
					"type": "address"
				},
				{
					"internalType": "uint256",
					"name": "collateralAmount",
					"type": "uint256"
				}
			],
			"name": "loan",
			"outputs": [],
			"stateMutability": "nonpayable",
			"type": "function"
		}
	]
}