{
	"data": {
		"bytecode": {
			"linkReferences": {},
			"object": "608060405234801561001057600080fd5b50604051610e6d380380610e6d8339818101604052810190610032919061008d565b806000806101000a81548173ffffffffffffffffffffffffffffffffffffffff021916908373ffffffffffffffffffffffffffffffffffffffff16021790555050610111565b600081519050610087816100fa565b92915050565b60006020828403121561009f57600080fd5b60006100ad84828501610078565b91505092915050565b60006100c1826100da565b9050919050565b60006100d3826100b6565b9050919050565b600073ffffffffffffffffffffffffffffffffffffffff82169050919050565b610103816100c8565b811461010e57600080fd5b50565b610d4d806101206000396000f3fe608060405234801561001057600080fd5b50600436106100365760003560e01c806323e30c8b1461003b578063b53e48851461006b575b600080fd5b610055600480360381019061005091906106d0565b610087565b60405161006291906109cc565b60405180910390f35b61008560048036038101906100809190610762565b610317565b005b60008060009054906101000a900473ffffffffffffffffffffffffffffffffffffffff1673ffffffffffffffffffffffffffffffffffffffff163373ffffffffffffffffffffffffffffffffffffffff1614610118576040517f08c379a000000000000000000000000000000000000000000000000000000000815260040161010f90610a6e565b60405180910390fd5b3073ffffffffffffffffffffffffffffffffffffffff168773ffffffffffffffffffffffffffffffffffffffff1614610186576040517f08c379a000000000000000000000000000000000000000000000000000000000815260040161017d90610a4e565b60405180910390fd5b6000838381019061019791906107c7565b9050600073bba24ce0a5643f129fb47c6c209ad7e6ef0ef56e90508773ffffffffffffffffffffffffffffffffffffffff1663a9059cbb8260028a6101dc9190610b11565b6040518363ffffffff1660e01b81526004016101f99291906109a3565b602060405180830381600087803b15801561021357600080fd5b505af1158015610227573d6000803e3d6000fd5b505050506040513d601f19601f8201168201806040525081019061024b919061079e565b508773ffffffffffffffffffffffffffffffffffffffff166323b872dd823060028b6102779190610b11565b6040518463ffffffff1660e01b81526004016102959392919061096c565b602060405180830381600087803b1580156102af57600080fd5b505af11580156102c3573d6000803e3d6000fd5b505050506040513d601f19601f820116820180604052508101906102e7919061079e565b507f439148f0bbc682ca079e46d6e2c2f0c1e3b820f1a291b069d8882abf8cf18dd9925050509695505050505050565b60008060405160200161032a9190610a33565b604051602081830303815290604052905060008373ffffffffffffffffffffffffffffffffffffffff1663dd62ed3e3060008054906101000a900473ffffffffffffffffffffffffffffffffffffffff166040518363ffffffff1660e01b8152600401610398929190610943565b60206040518083038186803b1580156103b057600080fd5b505afa1580156103c4573d6000803e3d6000fd5b505050506040513d601f19601f820116820180604052508101906103e891906107f0565b905060008060009054906101000a900473ffffffffffffffffffffffffffffffffffffffff1673ffffffffffffffffffffffffffffffffffffffff1663d9d98ce486866040518363ffffffff1660e01b81526004016104489291906109a3565b60206040518083038186803b15801561046057600080fd5b505afa158015610474573d6000803e3d6000fd5b505050506040513d601f19601f8201168201806040525081019061049891906107f0565b9050600081856104a89190610abb565b90508573ffffffffffffffffffffffffffffffffffffffff1663095ea7b360008054906101000a900473ffffffffffffffffffffffffffffffffffffffff1683866104f39190610abb565b6040518363ffffffff1660e01b81526004016105109291906109a3565b602060405180830381600087803b15801561052a57600080fd5b505af115801561053e573d6000803e3d6000fd5b505050506040513d601f19601f82011682018060405250810190610562919061079e565b5060008054906101000a900473ffffffffffffffffffffffffffffffffffffffff1673ffffffffffffffffffffffffffffffffffffffff16635cffe9de308888886040518563ffffffff1660e01b81526004016105c294939291906109e7565b602060405180830381600087803b1580156105dc57600080fd5b505af11580156105f0573d6000803e3d6000fd5b505050506040513d601f19601f82011682018060405250810190610614919061079e565b50505050505050565b60008135905061062c81610cc2565b92915050565b60008151905061064181610cd9565b92915050565b60008083601f84011261065957600080fd5b8235905067ffffffffffffffff81111561067257600080fd5b60208301915083600182028301111561068a57600080fd5b9250929050565b6000813590506106a081610cf0565b92915050565b6000813590506106b581610d00565b92915050565b6000815190506106ca81610d00565b92915050565b60008060008060008060a087890312156106e957600080fd5b60006106f789828a0161061d565b965050602061070889828a0161061d565b955050604061071989828a016106a6565b945050606061072a89828a016106a6565b935050608087013567ffffffffffffffff81111561074757600080fd5b61075389828a01610647565b92509250509295509295509295565b6000806040838503121561077557600080fd5b60006107838582860161061d565b9250506020610794858286016106a6565b9150509250929050565b6000602082840312156107b057600080fd5b60006107be84828501610632565b91505092915050565b6000602082840312156107d957600080fd5b60006107e784828501610691565b91505092915050565b60006020828403121561080257600080fd5b6000610810848285016106bb565b91505092915050565b61082281610b42565b82525050565b61083181610b60565b82525050565b600061084282610a8e565b61084c8185610a99565b935061085c818560208601610bdd565b61086581610c9d565b840191505092915050565b61087981610ba7565b82525050565b61088881610bcb565b82525050565b600061089b602783610aaa565b91507f466c617368426f72726f7765723a20556e74727573746564206c6f616e20696e60008301527f69746961746f72000000000000000000000000000000000000000000000000006020830152604082019050919050565b6000610901601f83610aaa565b91507f466c617368426f72726f7765723a20556e74727573746564206c656e646572006000830152602082019050919050565b61093d81610b9d565b82525050565b60006040820190506109586000830185610819565b6109656020830184610819565b9392505050565b60006060820190506109816000830186610819565b61098e6020830185610819565b61099b6040830184610934565b949350505050565b60006040820190506109b86000830185610819565b6109c56020830184610934565b9392505050565b60006020820190506109e16000830184610828565b92915050565b60006080820190506109fc6000830187610870565b610a096020830186610819565b610a166040830185610934565b8181036060830152610a288184610837565b905095945050505050565b6000602082019050610a48600083018461087f565b92915050565b60006020820190508181036000830152610a678161088e565b9050919050565b60006020820190508181036000830152610a87816108f4565b9050919050565b600081519050919050565b600082825260208201905092915050565b600082825260208201905092915050565b6000610ac682610b9d565b9150610ad183610b9d565b9250827fffffffffffffffffffffffffffffffffffffffffffffffffffffffffffffffff03821115610b0657610b05610c10565b5b828201905092915050565b6000610b1c82610b9d565b9150610b2783610b9d565b925082610b3757610b36610c3f565b5b828204905092915050565b6000610b4d82610b7d565b9050919050565b60008115159050919050565b6000819050919050565b6000819050610b7882610cae565b919050565b600073ffffffffffffffffffffffffffffffffffffffff82169050919050565b6000819050919050565b6000610bb282610bb9565b9050919050565b6000610bc482610b7d565b9050919050565b6000610bd682610b6a565b9050919050565b60005b83811015610bfb578082015181840152602081019050610be0565b83811115610c0a576000848401525b50505050565b7f4e487b7100000000000000000000000000000000000000000000000000000000600052601160045260246000fd5b7f4e487b7100000000000000000000000000000000000000000000000000000000600052601260045260246000fd5b7f4e487b7100000000000000000000000000000000000000000000000000000000600052602160045260246000fd5b6000601f19601f8301169050919050565b60028110610cbf57610cbe610c6e565b5b50565b610ccb81610b42565b8114610cd657600080fd5b50565b610ce281610b54565b8114610ced57600080fd5b50565b60028110610cfd57600080fd5b50565b610d0981610b9d565b8114610d1457600080fd5b5056fea2646970667358221220ab45abe84b50b2d7e3a6e2203d8bdd4242fd30b8c95462c732943279a19f9d9e64736f6c63430008000033",
			"opcodes": "PUSH1 0x80 PUSH1 0x40 MSTORE CALLVALUE DUP1 ISZERO PUSH2 0x10 JUMPI PUSH1 0x0 DUP1 REVERT JUMPDEST POP PUSH1 0x40 MLOAD PUSH2 0xE6D CODESIZE SUB DUP1 PUSH2 0xE6D DUP4 CODECOPY DUP2 DUP2 ADD PUSH1 0x40 MSTORE DUP2 ADD SWAP1 PUSH2 0x32 SWAP2 SWAP1 PUSH2 0x8D JUMP JUMPDEST DUP1 PUSH1 0x0 DUP1 PUSH2 0x100 EXP DUP2 SLOAD DUP2 PUSH20 0xFFFFFFFFFFFFFFFFFFFFFFFFFFFFFFFFFFFFFFFF MUL NOT AND SWAP1 DUP4 PUSH20 0xFFFFFFFFFFFFFFFFFFFFFFFFFFFFFFFFFFFFFFFF AND MUL OR SWAP1 SSTORE POP POP PUSH2 0x111 JUMP JUMPDEST PUSH1 0x0 DUP2 MLOAD SWAP1 POP PUSH2 0x87 DUP2 PUSH2 0xFA JUMP JUMPDEST SWAP3 SWAP2 POP POP JUMP JUMPDEST PUSH1 0x0 PUSH1 0x20 DUP3 DUP5 SUB SLT ISZERO PUSH2 0x9F JUMPI PUSH1 0x0 DUP1 REVERT JUMPDEST PUSH1 0x0 PUSH2 0xAD DUP5 DUP3 DUP6 ADD PUSH2 0x78 JUMP JUMPDEST SWAP2 POP POP SWAP3 SWAP2 POP POP JUMP JUMPDEST PUSH1 0x0 PUSH2 0xC1 DUP3 PUSH2 0xDA JUMP JUMPDEST SWAP1 POP SWAP2 SWAP1 POP JUMP JUMPDEST PUSH1 0x0 PUSH2 0xD3 DUP3 PUSH2 0xB6 JUMP JUMPDEST SWAP1 POP SWAP2 SWAP1 POP JUMP JUMPDEST PUSH1 0x0 PUSH20 0xFFFFFFFFFFFFFFFFFFFFFFFFFFFFFFFFFFFFFFFF DUP3 AND SWAP1 POP SWAP2 SWAP1 POP JUMP JUMPDEST PUSH2 0x103 DUP2 PUSH2 0xC8 JUMP JUMPDEST DUP2 EQ PUSH2 0x10E JUMPI PUSH1 0x0 DUP1 REVERT JUMPDEST POP JUMP JUMPDEST PUSH2 0xD4D DUP1 PUSH2 0x120 PUSH1 0x0 CODECOPY PUSH1 0x0 RETURN INVALID PUSH1 0x80 PUSH1 0x40 MSTORE CALLVALUE DUP1 ISZERO PUSH2 0x10 JUMPI PUSH1 0x0 DUP1 REVERT JUMPDEST POP PUSH1 0x4 CALLDATASIZE LT PUSH2 0x36 JUMPI PUSH1 0x0 CALLDATALOAD PUSH1 0xE0 SHR DUP1 PUSH4 0x23E30C8B EQ PUSH2 0x3B JUMPI DUP1 PUSH4 0xB53E4885 EQ PUSH2 0x6B JUMPI JUMPDEST PUSH1 0x0 DUP1 REVERT JUMPDEST PUSH2 0x55 PUSH1 0x4 DUP1 CALLDATASIZE SUB DUP2 ADD SWAP1 PUSH2 0x50 SWAP2 SWAP1 PUSH2 0x6D0 JUMP JUMPDEST PUSH2 0x87 JUMP JUMPDEST PUSH1 0x40 MLOAD PUSH2 0x62 SWAP2 SWAP1 PUSH2 0x9CC JUMP JUMPDEST PUSH1 0x40 MLOAD DUP1 SWAP2 SUB SWAP1 RETURN JUMPDEST PUSH2 0x85 PUSH1 0x4 DUP1 CALLDATASIZE SUB DUP2 ADD SWAP1 PUSH2 0x80 SWAP2 SWAP1 PUSH2 0x762 JUMP JUMPDEST PUSH2 0x317 JUMP JUMPDEST STOP JUMPDEST PUSH1 0x0 DUP1 PUSH1 0x0 SWAP1 SLOAD SWAP1 PUSH2 0x100 EXP SWAP1 DIV PUSH20 0xFFFFFFFFFFFFFFFFFFFFFFFFFFFFFFFFFFFFFFFF AND PUSH20 0xFFFFFFFFFFFFFFFFFFFFFFFFFFFFFFFFFFFFFFFF AND CALLER PUSH20 0xFFFFFFFFFFFFFFFFFFFFFFFFFFFFFFFFFFFFFFFF AND EQ PUSH2 0x118 JUMPI PUSH1 0x40 MLOAD PUSH32 0x8C379A000000000000000000000000000000000000000000000000000000000 DUP2 MSTORE PUSH1 0x4 ADD PUSH2 0x10F SWAP1 PUSH2 0xA6E JUMP JUMPDEST PUSH1 0x40 MLOAD DUP1 SWAP2 SUB SWAP1 REVERT JUMPDEST ADDRESS PUSH20 0xFFFFFFFFFFFFFFFFFFFFFFFFFFFFFFFFFFFFFFFF AND DUP8 PUSH20 0xFFFFFFFFFFFFFFFFFFFFFFFFFFFFFFFFFFFFFFFF AND EQ PUSH2 0x186 JUMPI PUSH1 0x40 MLOAD PUSH32 0x8C379A000000000000000000000000000000000000000000000000000000000 DUP2 MSTORE PUSH1 0x4 ADD PUSH2 0x17D SWAP1 PUSH2 0xA4E JUMP JUMPDEST PUSH1 0x40 MLOAD DUP1 SWAP2 SUB SWAP1 REVERT JUMPDEST PUSH1 0x0 DUP4 DUP4 DUP2 ADD SWAP1 PUSH2 0x197 SWAP2 SWAP1 PUSH2 0x7C7 JUMP JUMPDEST SWAP1 POP PUSH1 0x0 PUSH20 0xBBA24CE0A5643F129FB47C6C209AD7E6EF0EF56E SWAP1 POP DUP8 PUSH20 0xFFFFFFFFFFFFFFFFFFFFFFFFFFFFFFFFFFFFFFFF AND PUSH4 0xA9059CBB DUP3 PUSH1 0x2 DUP11 PUSH2 0x1DC SWAP2 SWAP1 PUSH2 0xB11 JUMP JUMPDEST PUSH1 0x40 MLOAD DUP4 PUSH4 0xFFFFFFFF AND PUSH1 0xE0 SHL DUP2 MSTORE PUSH1 0x4 ADD PUSH2 0x1F9 SWAP3 SWAP2 SWAP1 PUSH2 0x9A3 JUMP JUMPDEST PUSH1 0x20 PUSH1 0x40 MLOAD DUP1 DUP4 SUB DUP2 PUSH1 0x0 DUP8 DUP1 EXTCODESIZE ISZERO DUP1 ISZERO PUSH2 0x213 JUMPI PUSH1 0x0 DUP1 REVERT JUMPDEST POP GAS CALL ISZERO DUP1 ISZERO PUSH2 0x227 JUMPI RETURNDATASIZE PUSH1 0x0 DUP1 RETURNDATACOPY RETURNDATASIZE PUSH1 0x0 REVERT JUMPDEST POP POP POP POP PUSH1 0x40 MLOAD RETURNDATASIZE PUSH1 0x1F NOT PUSH1 0x1F DUP3 ADD AND DUP3 ADD DUP1 PUSH1 0x40 MSTORE POP DUP2 ADD SWAP1 PUSH2 0x24B SWAP2 SWAP1 PUSH2 0x79E JUMP JUMPDEST POP DUP8 PUSH20 0xFFFFFFFFFFFFFFFFFFFFFFFFFFFFFFFFFFFFFFFF AND PUSH4 0x23B872DD DUP3 ADDRESS PUSH1 0x2 DUP12 PUSH2 0x277 SWAP2 SWAP1 PUSH2 0xB11 JUMP JUMPDEST PUSH1 0x40 MLOAD DUP5 PUSH4 0xFFFFFFFF AND PUSH1 0xE0 SHL DUP2 MSTORE PUSH1 0x4 ADD PUSH2 0x295 SWAP4 SWAP3 SWAP2 SWAP1 PUSH2 0x96C JUMP JUMPDEST PUSH1 0x20 PUSH1 0x40 MLOAD DUP1 DUP4 SUB DUP2 PUSH1 0x0 DUP8 DUP1 EXTCODESIZE ISZERO DUP1 ISZERO PUSH2 0x2AF JUMPI PUSH1 0x0 DUP1 REVERT JUMPDEST POP GAS CALL ISZERO DUP1 ISZERO PUSH2 0x2C3 JUMPI RETURNDATASIZE PUSH1 0x0 DUP1 RETURNDATACOPY RETURNDATASIZE PUSH1 0x0 REVERT JUMPDEST POP POP POP POP PUSH1 0x40 MLOAD RETURNDATASIZE PUSH1 0x1F NOT PUSH1 0x1F DUP3 ADD AND DUP3 ADD DUP1 PUSH1 0x40 MSTORE POP DUP2 ADD SWAP1 PUSH2 0x2E7 SWAP2 SWAP1 PUSH2 0x79E JUMP JUMPDEST POP PUSH32 0x439148F0BBC682CA079E46D6E2C2F0C1E3B820F1A291B069D8882ABF8CF18DD9 SWAP3 POP POP POP SWAP7 SWAP6 POP POP POP POP POP POP JUMP JUMPDEST PUSH1 0x0 DUP1 PUSH1 0x40 MLOAD PUSH1 0x20 ADD PUSH2 0x32A SWAP2 SWAP1 PUSH2 0xA33 JUMP JUMPDEST PUSH1 0x40 MLOAD PUSH1 0x20 DUP2 DUP4 SUB SUB DUP2 MSTORE SWAP1 PUSH1 0x40 MSTORE SWAP1 POP PUSH1 0x0 DUP4 PUSH20 0xFFFFFFFFFFFFFFFFFFFFFFFFFFFFFFFFFFFFFFFF AND PUSH4 0xDD62ED3E ADDRESS PUSH1 0x0 DUP1 SLOAD SWAP1 PUSH2 0x100 EXP SWAP1 DIV PUSH20 0xFFFFFFFFFFFFFFFFFFFFFFFFFFFFFFFFFFFFFFFF AND PUSH1 0x40 MLOAD DUP4 PUSH4 0xFFFFFFFF AND PUSH1 0xE0 SHL DUP2 MSTORE PUSH1 0x4 ADD PUSH2 0x398 SWAP3 SWAP2 SWAP1 PUSH2 0x943 JUMP JUMPDEST PUSH1 0x20 PUSH1 0x40 MLOAD DUP1 DUP4 SUB DUP2 DUP7 DUP1 EXTCODESIZE ISZERO DUP1 ISZERO PUSH2 0x3B0 JUMPI PUSH1 0x0 DUP1 REVERT JUMPDEST POP GAS STATICCALL ISZERO DUP1 ISZERO PUSH2 0x3C4 JUMPI RETURNDATASIZE PUSH1 0x0 DUP1 RETURNDATACOPY RETURNDATASIZE PUSH1 0x0 REVERT JUMPDEST POP POP POP POP PUSH1 0x40 MLOAD RETURNDATASIZE PUSH1 0x1F NOT PUSH1 0x1F DUP3 ADD AND DUP3 ADD DUP1 PUSH1 0x40 MSTORE POP DUP2 ADD SWAP1 PUSH2 0x3E8 SWAP2 SWAP1 PUSH2 0x7F0 JUMP JUMPDEST SWAP1 POP PUSH1 0x0 DUP1 PUSH1 0x0 SWAP1 SLOAD SWAP1 PUSH2 0x100 EXP SWAP1 DIV PUSH20 0xFFFFFFFFFFFFFFFFFFFFFFFFFFFFFFFFFFFFFFFF AND PUSH20 0xFFFFFFFFFFFFFFFFFFFFFFFFFFFFFFFFFFFFFFFF AND PUSH4 0xD9D98CE4 DUP7 DUP7 PUSH1 0x40 MLOAD DUP4 PUSH4 0xFFFFFFFF AND PUSH1 0xE0 SHL DUP2 MSTORE PUSH1 0x4 ADD PUSH2 0x448 SWAP3 SWAP2 SWAP1 PUSH2 0x9A3 JUMP JUMPDEST PUSH1 0x20 PUSH1 0x40 MLOAD DUP1 DUP4 SUB DUP2 DUP7 DUP1 EXTCODESIZE ISZERO DUP1 ISZERO PUSH2 0x460 JUMPI PUSH1 0x0 DUP1 REVERT JUMPDEST POP GAS STATICCALL ISZERO DUP1 ISZERO PUSH2 0x474 JUMPI RETURNDATASIZE PUSH1 0x0 DUP1 RETURNDATACOPY RETURNDATASIZE PUSH1 0x0 REVERT JUMPDEST POP POP POP POP PUSH1 0x40 MLOAD RETURNDATASIZE PUSH1 0x1F NOT PUSH1 0x1F DUP3 ADD AND DUP3 ADD DUP1 PUSH1 0x40 MSTORE POP DUP2 ADD SWAP1 PUSH2 0x498 SWAP2 SWAP1 PUSH2 0x7F0 JUMP JUMPDEST SWAP1 POP PUSH1 0x0 DUP2 DUP6 PUSH2 0x4A8 SWAP2 SWAP1 PUSH2 0xABB JUMP JUMPDEST SWAP1 POP DUP6 PUSH20 0xFFFFFFFFFFFFFFFFFFFFFFFFFFFFFFFFFFFFFFFF AND PUSH4 0x95EA7B3 PUSH1 0x0 DUP1 SLOAD SWAP1 PUSH2 0x100 EXP SWAP1 DIV PUSH20 0xFFFFFFFFFFFFFFFFFFFFFFFFFFFFFFFFFFFFFFFF AND DUP4 DUP7 PUSH2 0x4F3 SWAP2 SWAP1 PUSH2 0xABB JUMP JUMPDEST PUSH1 0x40 MLOAD DUP4 PUSH4 0xFFFFFFFF AND PUSH1 0xE0 SHL DUP2 MSTORE PUSH1 0x4 ADD PUSH2 0x510 SWAP3 SWAP2 SWAP1 PUSH2 0x9A3 JUMP JUMPDEST PUSH1 0x20 PUSH1 0x40 MLOAD DUP1 DUP4 SUB DUP2 PUSH1 0x0 DUP8 DUP1 EXTCODESIZE ISZERO DUP1 ISZERO PUSH2 0x52A JUMPI PUSH1 0x0 DUP1 REVERT JUMPDEST POP GAS CALL ISZERO DUP1 ISZERO PUSH2 0x53E JUMPI RETURNDATASIZE PUSH1 0x0 DUP1 RETURNDATACOPY RETURNDATASIZE PUSH1 0x0 REVERT JUMPDEST POP POP POP POP PUSH1 0x40 MLOAD RETURNDATASIZE PUSH1 0x1F NOT PUSH1 0x1F DUP3 ADD AND DUP3 ADD DUP1 PUSH1 0x40 MSTORE POP DUP2 ADD SWAP1 PUSH2 0x562 SWAP2 SWAP1 PUSH2 0x79E JUMP JUMPDEST POP PUSH1 0x0 DUP1 SLOAD SWAP1 PUSH2 0x100 EXP SWAP1 DIV PUSH20 0xFFFFFFFFFFFFFFFFFFFFFFFFFFFFFFFFFFFFFFFF AND PUSH20 0xFFFFFFFFFFFFFFFFFFFFFFFFFFFFFFFFFFFFFFFF AND PUSH4 0x5CFFE9DE ADDRESS DUP9 DUP9 DUP9 PUSH1 0x40 MLOAD DUP6 PUSH4 0xFFFFFFFF AND PUSH1 0xE0 SHL DUP2 MSTORE PUSH1 0x4 ADD PUSH2 0x5C2 SWAP5 SWAP4 SWAP3 SWAP2 SWAP1 PUSH2 0x9E7 JUMP JUMPDEST PUSH1 0x20 PUSH1 0x40 MLOAD DUP1 DUP4 SUB DUP2 PUSH1 0x0 DUP8 DUP1 EXTCODESIZE ISZERO DUP1 ISZERO PUSH2 0x5DC JUMPI PUSH1 0x0 DUP1 REVERT JUMPDEST POP GAS CALL ISZERO DUP1 ISZERO PUSH2 0x5F0 JUMPI RETURNDATASIZE PUSH1 0x0 DUP1 RETURNDATACOPY RETURNDATASIZE PUSH1 0x0 REVERT JUMPDEST POP POP POP POP PUSH1 0x40 MLOAD RETURNDATASIZE PUSH1 0x1F NOT PUSH1 0x1F DUP3 ADD AND DUP3 ADD DUP1 PUSH1 0x40 MSTORE POP DUP2 ADD SWAP1 PUSH2 0x614 SWAP2 SWAP1 PUSH2 0x79E JUMP JUMPDEST POP POP POP POP POP POP POP JUMP JUMPDEST PUSH1 0x0 DUP2 CALLDATALOAD SWAP1 POP PUSH2 0x62C DUP2 PUSH2 0xCC2 JUMP JUMPDEST SWAP3 SWAP2 POP POP JUMP JUMPDEST PUSH1 0x0 DUP2 MLOAD SWAP1 POP PUSH2 0x641 DUP2 PUSH2 0xCD9 JUMP JUMPDEST SWAP3 SWAP2 POP POP JUMP JUMPDEST PUSH1 0x0 DUP1 DUP4 PUSH1 0x1F DUP5 ADD SLT PUSH2 0x659 JUMPI PUSH1 0x0 DUP1 REVERT JUMPDEST DUP3 CALLDATALOAD SWAP1 POP PUSH8 0xFFFFFFFFFFFFFFFF DUP2 GT ISZERO PUSH2 0x672 JUMPI PUSH1 0x0 DUP1 REVERT JUMPDEST PUSH1 0x20 DUP4 ADD SWAP2 POP DUP4 PUSH1 0x1 DUP3 MUL DUP4 ADD GT ISZERO PUSH2 0x68A JUMPI PUSH1 0x0 DUP1 REVERT JUMPDEST SWAP3 POP SWAP3 SWAP1 POP JUMP JUMPDEST PUSH1 0x0 DUP2 CALLDATALOAD SWAP1 POP PUSH2 0x6A0 DUP2 PUSH2 0xCF0 JUMP JUMPDEST SWAP3 SWAP2 POP POP JUMP JUMPDEST PUSH1 0x0 DUP2 CALLDATALOAD SWAP1 POP PUSH2 0x6B5 DUP2 PUSH2 0xD00 JUMP JUMPDEST SWAP3 SWAP2 POP POP JUMP JUMPDEST PUSH1 0x0 DUP2 MLOAD SWAP1 POP PUSH2 0x6CA DUP2 PUSH2 0xD00 JUMP JUMPDEST SWAP3 SWAP2 POP POP JUMP JUMPDEST PUSH1 0x0 DUP1 PUSH1 0x0 DUP1 PUSH1 0x0 DUP1 PUSH1 0xA0 DUP8 DUP10 SUB SLT ISZERO PUSH2 0x6E9 JUMPI PUSH1 0x0 DUP1 REVERT JUMPDEST PUSH1 0x0 PUSH2 0x6F7 DUP10 DUP3 DUP11 ADD PUSH2 0x61D JUMP JUMPDEST SWAP7 POP POP PUSH1 0x20 PUSH2 0x708 DUP10 DUP3 DUP11 ADD PUSH2 0x61D JUMP JUMPDEST SWAP6 POP POP PUSH1 0x40 PUSH2 0x719 DUP10 DUP3 DUP11 ADD PUSH2 0x6A6 JUMP JUMPDEST SWAP5 POP POP PUSH1 0x60 PUSH2 0x72A DUP10 DUP3 DUP11 ADD PUSH2 0x6A6 JUMP JUMPDEST SWAP4 POP POP PUSH1 0x80 DUP8 ADD CALLDATALOAD PUSH8 0xFFFFFFFFFFFFFFFF DUP2 GT ISZERO PUSH2 0x747 JUMPI PUSH1 0x0 DUP1 REVERT JUMPDEST PUSH2 0x753 DUP10 DUP3 DUP11 ADD PUSH2 0x647 JUMP JUMPDEST SWAP3 POP SWAP3 POP POP SWAP3 SWAP6 POP SWAP3 SWAP6 POP SWAP3 SWAP6 JUMP JUMPDEST PUSH1 0x0 DUP1 PUSH1 0x40 DUP4 DUP6 SUB SLT ISZERO PUSH2 0x775 JUMPI PUSH1 0x0 DUP1 REVERT JUMPDEST PUSH1 0x0 PUSH2 0x783 DUP6 DUP3 DUP7 ADD PUSH2 0x61D JUMP JUMPDEST SWAP3 POP POP PUSH1 0x20 PUSH2 0x794 DUP6 DUP3 DUP7 ADD PUSH2 0x6A6 JUMP JUMPDEST SWAP2 POP POP SWAP3 POP SWAP3 SWAP1 POP JUMP JUMPDEST PUSH1 0x0 PUSH1 0x20 DUP3 DUP5 SUB SLT ISZERO PUSH2 0x7B0 JUMPI PUSH1 0x0 DUP1 REVERT JUMPDEST PUSH1 0x0 PUSH2 0x7BE DUP5 DUP3 DUP6 ADD PUSH2 0x632 JUMP JUMPDEST SWAP2 POP POP SWAP3 SWAP2 POP POP JUMP JUMPDEST PUSH1 0x0 PUSH1 0x20 DUP3 DUP5 SUB SLT ISZERO PUSH2 0x7D9 JUMPI PUSH1 0x0 DUP1 REVERT JUMPDEST PUSH1 0x0 PUSH2 0x7E7 DUP5 DUP3 DUP6 ADD PUSH2 0x691 JUMP JUMPDEST SWAP2 POP POP SWAP3 SWAP2 POP POP JUMP JUMPDEST PUSH1 0x0 PUSH1 0x20 DUP3 DUP5 SUB SLT ISZERO PUSH2 0x802 JUMPI PUSH1 0x0 DUP1 REVERT JUMPDEST PUSH1 0x0 PUSH2 0x810 DUP5 DUP3 DUP6 ADD PUSH2 0x6BB JUMP JUMPDEST SWAP2 POP POP SWAP3 SWAP2 POP POP JUMP JUMPDEST PUSH2 0x822 DUP2 PUSH2 0xB42 JUMP JUMPDEST DUP3 MSTORE POP POP JUMP JUMPDEST PUSH2 0x831 DUP2 PUSH2 0xB60 JUMP JUMPDEST DUP3 MSTORE POP POP JUMP JUMPDEST PUSH1 0x0 PUSH2 0x842 DUP3 PUSH2 0xA8E JUMP JUMPDEST PUSH2 0x84C DUP2 DUP6 PUSH2 0xA99 JUMP JUMPDEST SWAP4 POP PUSH2 0x85C DUP2 DUP6 PUSH1 0x20 DUP7 ADD PUSH2 0xBDD JUMP JUMPDEST PUSH2 0x865 DUP2 PUSH2 0xC9D JUMP JUMPDEST DUP5 ADD SWAP2 POP POP SWAP3 SWAP2 POP POP JUMP JUMPDEST PUSH2 0x879 DUP2 PUSH2 0xBA7 JUMP JUMPDEST DUP3 MSTORE POP POP JUMP JUMPDEST PUSH2 0x888 DUP2 PUSH2 0xBCB JUMP JUMPDEST DUP3 MSTORE POP POP JUMP JUMPDEST PUSH1 0x0 PUSH2 0x89B PUSH1 0x27 DUP4 PUSH2 0xAAA JUMP JUMPDEST SWAP2 POP PUSH32 0x466C617368426F72726F7765723A20556E74727573746564206C6F616E20696E PUSH1 0x0 DUP4 ADD MSTORE PUSH32 0x69746961746F7200000000000000000000000000000000000000000000000000 PUSH1 0x20 DUP4 ADD MSTORE PUSH1 0x40 DUP3 ADD SWAP1 POP SWAP2 SWAP1 POP JUMP JUMPDEST PUSH1 0x0 PUSH2 0x901 PUSH1 0x1F DUP4 PUSH2 0xAAA JUMP JUMPDEST SWAP2 POP PUSH32 0x466C617368426F72726F7765723A20556E74727573746564206C656E64657200 PUSH1 0x0 DUP4 ADD MSTORE PUSH1 0x20 DUP3 ADD SWAP1 POP SWAP2 SWAP1 POP JUMP JUMPDEST PUSH2 0x93D DUP2 PUSH2 0xB9D JUMP JUMPDEST DUP3 MSTORE POP POP JUMP JUMPDEST PUSH1 0x0 PUSH1 0x40 DUP3 ADD SWAP1 POP PUSH2 0x958 PUSH1 0x0 DUP4 ADD DUP6 PUSH2 0x819 JUMP JUMPDEST PUSH2 0x965 PUSH1 0x20 DUP4 ADD DUP5 PUSH2 0x819 JUMP JUMPDEST SWAP4 SWAP3 POP POP POP JUMP JUMPDEST PUSH1 0x0 PUSH1 0x60 DUP3 ADD SWAP1 POP PUSH2 0x981 PUSH1 0x0 DUP4 ADD DUP7 PUSH2 0x819 JUMP JUMPDEST PUSH2 0x98E PUSH1 0x20 DUP4 ADD DUP6 PUSH2 0x819 JUMP JUMPDEST PUSH2 0x99B PUSH1 0x40 DUP4 ADD DUP5 PUSH2 0x934 JUMP JUMPDEST SWAP5 SWAP4 POP POP POP POP JUMP JUMPDEST PUSH1 0x0 PUSH1 0x40 DUP3 ADD SWAP1 POP PUSH2 0x9B8 PUSH1 0x0 DUP4 ADD DUP6 PUSH2 0x819 JUMP JUMPDEST PUSH2 0x9C5 PUSH1 0x20 DUP4 ADD DUP5 PUSH2 0x934 JUMP JUMPDEST SWAP4 SWAP3 POP POP POP JUMP JUMPDEST PUSH1 0x0 PUSH1 0x20 DUP3 ADD SWAP1 POP PUSH2 0x9E1 PUSH1 0x0 DUP4 ADD DUP5 PUSH2 0x828 JUMP JUMPDEST SWAP3 SWAP2 POP POP JUMP JUMPDEST PUSH1 0x0 PUSH1 0x80 DUP3 ADD SWAP1 POP PUSH2 0x9FC PUSH1 0x0 DUP4 ADD DUP8 PUSH2 0x870 JUMP JUMPDEST PUSH2 0xA09 PUSH1 0x20 DUP4 ADD DUP7 PUSH2 0x819 JUMP JUMPDEST PUSH2 0xA16 PUSH1 0x40 DUP4 ADD DUP6 PUSH2 0x934 JUMP JUMPDEST DUP2 DUP2 SUB PUSH1 0x60 DUP4 ADD MSTORE PUSH2 0xA28 DUP2 DUP5 PUSH2 0x837 JUMP JUMPDEST SWAP1 POP SWAP6 SWAP5 POP POP POP POP POP JUMP JUMPDEST PUSH1 0x0 PUSH1 0x20 DUP3 ADD SWAP1 POP PUSH2 0xA48 PUSH1 0x0 DUP4 ADD DUP5 PUSH2 0x87F JUMP JUMPDEST SWAP3 SWAP2 POP POP JUMP JUMPDEST PUSH1 0x0 PUSH1 0x20 DUP3 ADD SWAP1 POP DUP2 DUP2 SUB PUSH1 0x0 DUP4 ADD MSTORE PUSH2 0xA67 DUP2 PUSH2 0x88E JUMP JUMPDEST SWAP1 POP SWAP2 SWAP1 POP JUMP JUMPDEST PUSH1 0x0 PUSH1 0x20 DUP3 ADD SWAP1 POP DUP2 DUP2 SUB PUSH1 0x0 DUP4 ADD MSTORE PUSH2 0xA87 DUP2 PUSH2 0x8F4 JUMP JUMPDEST SWAP1 POP SWAP2 SWAP1 POP JUMP JUMPDEST PUSH1 0x0 DUP2 MLOAD SWAP1 POP SWAP2 SWAP1 POP JUMP JUMPDEST PUSH1 0x0 DUP3 DUP3 MSTORE PUSH1 0x20 DUP3 ADD SWAP1 POP SWAP3 SWAP2 POP POP JUMP JUMPDEST PUSH1 0x0 DUP3 DUP3 MSTORE PUSH1 0x20 DUP3 ADD SWAP1 POP SWAP3 SWAP2 POP POP JUMP JUMPDEST PUSH1 0x0 PUSH2 0xAC6 DUP3 PUSH2 0xB9D JUMP JUMPDEST SWAP2 POP PUSH2 0xAD1 DUP4 PUSH2 0xB9D JUMP JUMPDEST SWAP3 POP DUP3 PUSH32 0xFFFFFFFFFFFFFFFFFFFFFFFFFFFFFFFFFFFFFFFFFFFFFFFFFFFFFFFFFFFFFFFF SUB DUP3 GT ISZERO PUSH2 0xB06 JUMPI PUSH2 0xB05 PUSH2 0xC10 JUMP JUMPDEST JUMPDEST DUP3 DUP3 ADD SWAP1 POP SWAP3 SWAP2 POP POP JUMP JUMPDEST PUSH1 0x0 PUSH2 0xB1C DUP3 PUSH2 0xB9D JUMP JUMPDEST SWAP2 POP PUSH2 0xB27 DUP4 PUSH2 0xB9D JUMP JUMPDEST SWAP3 POP DUP3 PUSH2 0xB37 JUMPI PUSH2 0xB36 PUSH2 0xC3F JUMP JUMPDEST JUMPDEST DUP3 DUP3 DIV SWAP1 POP SWAP3 SWAP2 POP POP JUMP JUMPDEST PUSH1 0x0 PUSH2 0xB4D DUP3 PUSH2 0xB7D JUMP JUMPDEST SWAP1 POP SWAP2 SWAP1 POP JUMP JUMPDEST PUSH1 0x0 DUP2 ISZERO ISZERO SWAP1 POP SWAP2 SWAP1 POP JUMP JUMPDEST PUSH1 0x0 DUP2 SWAP1 POP SWAP2 SWAP1 POP JUMP JUMPDEST PUSH1 0x0 DUP2 SWAP1 POP PUSH2 0xB78 DUP3 PUSH2 0xCAE JUMP JUMPDEST SWAP2 SWAP1 POP JUMP JUMPDEST PUSH1 0x0 PUSH20 0xFFFFFFFFFFFFFFFFFFFFFFFFFFFFFFFFFFFFFFFF DUP3 AND SWAP1 POP SWAP2 SWAP1 POP JUMP JUMPDEST PUSH1 0x0 DUP2 SWAP1 POP SWAP2 SWAP1 POP JUMP JUMPDEST PUSH1 0x0 PUSH2 0xBB2 DUP3 PUSH2 0xBB9 JUMP JUMPDEST SWAP1 POP SWAP2 SWAP1 POP JUMP JUMPDEST PUSH1 0x0 PUSH2 0xBC4 DUP3 PUSH2 0xB7D JUMP JUMPDEST SWAP1 POP SWAP2 SWAP1 POP JUMP JUMPDEST PUSH1 0x0 PUSH2 0xBD6 DUP3 PUSH2 0xB6A JUMP JUMPDEST SWAP1 POP SWAP2 SWAP1 POP JUMP JUMPDEST PUSH1 0x0 JUMPDEST DUP4 DUP2 LT ISZERO PUSH2 0xBFB JUMPI DUP1 DUP3 ADD MLOAD DUP2 DUP5 ADD MSTORE PUSH1 0x20 DUP2 ADD SWAP1 POP PUSH2 0xBE0 JUMP JUMPDEST DUP4 DUP2 GT ISZERO PUSH2 0xC0A JUMPI PUSH1 0x0 DUP5 DUP5 ADD MSTORE JUMPDEST POP POP POP POP JUMP JUMPDEST PUSH32 0x4E487B7100000000000000000000000000000000000000000000000000000000 PUSH1 0x0 MSTORE PUSH1 0x11 PUSH1 0x4 MSTORE PUSH1 0x24 PUSH1 0x0 REVERT JUMPDEST PUSH32 0x4E487B7100000000000000000000000000000000000000000000000000000000 PUSH1 0x0 MSTORE PUSH1 0x12 PUSH1 0x4 MSTORE PUSH1 0x24 PUSH1 0x0 REVERT JUMPDEST PUSH32 0x4E487B7100000000000000000000000000000000000000000000000000000000 PUSH1 0x0 MSTORE PUSH1 0x21 PUSH1 0x4 MSTORE PUSH1 0x24 PUSH1 0x0 REVERT JUMPDEST PUSH1 0x0 PUSH1 0x1F NOT PUSH1 0x1F DUP4 ADD AND SWAP1 POP SWAP2 SWAP1 POP JUMP JUMPDEST PUSH1 0x2 DUP2 LT PUSH2 0xCBF JUMPI PUSH2 0xCBE PUSH2 0xC6E JUMP JUMPDEST JUMPDEST POP JUMP JUMPDEST PUSH2 0xCCB DUP2 PUSH2 0xB42 JUMP JUMPDEST DUP2 EQ PUSH2 0xCD6 JUMPI PUSH1 0x0 DUP1 REVERT JUMPDEST POP JUMP JUMPDEST PUSH2 0xCE2 DUP2 PUSH2 0xB54 JUMP JUMPDEST DUP2 EQ PUSH2 0xCED JUMPI PUSH1 0x0 DUP1 REVERT JUMPDEST POP JUMP JUMPDEST PUSH1 0x2 DUP2 LT PUSH2 0xCFD JUMPI PUSH1 0x0 DUP1 REVERT JUMPDEST POP JUMP JUMPDEST PUSH2 0xD09 DUP2 PUSH2 0xB9D JUMP JUMPDEST DUP2 EQ PUSH2 0xD14 JUMPI PUSH1 0x0 DUP1 REVERT JUMPDEST POP JUMP INVALID LOG2 PUSH5 0x6970667358 0x22 SLT KECCAK256 0xAB GASLIMIT 0xAB 0xE8 0x4B POP 0xB2 0xD7 0xE3 0xA6 0xE2 KECCAK256 RETURNDATASIZE DUP12 0xDD TIMESTAMP TIMESTAMP REVERT ADDRESS 0xB8 0xC9 SLOAD PUSH3 0xC73294 ORIGIN PUSH26 0xA19F9D9E64736F6C634300080000330000000000000000000000 "
		},
		"gasEstimates": {
			"creation": {
				"codeDepositCost": "681000",
				"executionCost": "infinite",
				"totalCost": "infinite"
			},
			"external": {
				"flashBorrow(address,uint256)": "infinite",
				"onFlashLoan(address,address,uint256,uint256,bytes)": "infinite"
			}
		},
		"methodIdentifiers": {
			"flashBorrow(address,uint256)": "b53e4885",
			"onFlashLoan(address,address,uint256,uint256,bytes)": "23e30c8b"
		}
	},
	"abi": [
		{
			"inputs": [
				{
					"internalType": "contract IERC3156FlashLender",
					"name": "lender_",
					"type": "address"
				}
			],
			"stateMutability": "nonpayable",
			"type": "constructor"
		},
		{
			"inputs": [
				{
					"internalType": "address",
					"name": "token",
					"type": "address"
				},
				{
					"internalType": "uint256",
					"name": "amount",
					"type": "uint256"
				}
			],
			"name": "flashBorrow",
			"outputs": [],
			"stateMutability": "nonpayable",
			"type": "function"
		},
		{
			"inputs": [
				{
					"internalType": "address",
					"name": "initiator",
					"type": "address"
				},
				{
					"internalType": "address",
					"name": "token",
					"type": "address"
				},
				{
					"internalType": "uint256",
					"name": "amount",
					"type": "uint256"
				},
				{
					"internalType": "uint256",
					"name": "fee",
					"type": "uint256"
				},
				{
					"internalType": "bytes",
					"name": "data",
					"type": "bytes"
				}
			],
			"name": "onFlashLoan",
			"outputs": [
				{
					"internalType": "bytes32",
					"name": "",
					"type": "bytes32"
				}
			],
			"stateMutability": "nonpayable",
			"type": "function"
		}
	]
}