{
	"data": {
		"bytecode": {
			"linkReferences": {},
			"object": "608060405234801561001057600080fd5b506040516109ef3803806109ef83398101604081905261002f916100ca565b60005b82518110156100a457600160008085848151811061006057634e487b7160e01b600052603260045260246000fd5b6020908102919091018101516001600160a01b03168252810191909152604001600020805460ff19169115159190911790558061009c81610192565b915050610032565b50600155506101cf565b80516001600160a01b03811681146100c557600080fd5b919050565b600080604083850312156100dc578182fd5b82516001600160401b03808211156100f2578384fd5b818501915085601f830112610105578384fd5b8151602082821115610119576101196101b9565b80820260405182828201018181108682111715610138576101386101b9565b604052838152828101945085830182870184018b1015610156578889fd5b8896505b8487101561017f5761016b816100ae565b86526001969096019594830194830161015a565b5097909101519698969750505050505050565b60006000198214156101b257634e487b7160e01b81526011600452602481fd5b5060010190565b634e487b7160e01b600052604160045260246000fd5b610811806101de6000396000f3fe608060405234801561001057600080fd5b50600436106100625760003560e01c80635cffe9de14610067578063613255ab1461009057806368c4ac26146100b05780638237e538146100c3578063d9d98ce4146100cb578063ddca3f43146100de575b600080fd5b61007a610075366004610518565b6100e6565b604051610087919061065c565b60405180910390f35b6100a361009e366004610499565b61034c565b6040516100879190610667565b61007a6100be366004610499565b6103f5565b6100a361040a565b6100a36100d93660046104b5565b61042e565b6100a3610476565b6001600160a01b03841660009081526020819052604081205460ff166101275760405162461bcd60e51b815260040161011e90610670565b60405180910390fd5b60006101328561047c565b60405163a9059cbb60e01b81529091506001600160a01b0387169063a9059cbb90610163908a908990600401610643565b602060405180830381600087803b15801561017d57600080fd5b505af1158015610191573d6000803e3d6000fd5b505050506040513d601f19601f820116820180604052508101906101b591906104e0565b6101d15760405162461bcd60e51b815260040161011e9061071f565b6040516323e30c8b60e01b81527f439148f0bbc682ca079e46d6e2c2f0c1e3b820f1a291b069d8882abf8cf18dd9906001600160a01b038916906323e30c8b906102299033908b908b9088908c908c906004016105ea565b602060405180830381600087803b15801561024357600080fd5b505af1158015610257573d6000803e3d6000fd5b505050506040513d601f19601f8201168201806040525081019061027b9190610500565b146102985760405162461bcd60e51b815260040161011e906106b1565b6001600160a01b0386166323b872dd88306102b3858a610756565b6040518463ffffffff1660e01b81526004016102d1939291906105c6565b602060405180830381600087803b1580156102eb57600080fd5b505af11580156102ff573d6000803e3d6000fd5b505050506040513d601f19601f8201168201806040525081019061032391906104e0565b61033f5760405162461bcd60e51b815260040161011e906106e8565b5060019695505050505050565b6001600160a01b03811660009081526020819052604081205460ff166103735760006103ef565b6040516370a0823160e01b81526001600160a01b038316906370a082319061039f9030906004016105b2565b60206040518083038186803b1580156103b757600080fd5b505afa1580156103cb573d6000803e3d6000fd5b505050506040513d601f19601f820116820180604052508101906103ef9190610500565b92915050565b60006020819052908152604090205460ff1681565b7f439148f0bbc682ca079e46d6e2c2f0c1e3b820f1a291b069d8882abf8cf18dd981565b6001600160a01b03821660009081526020819052604081205460ff166104665760405162461bcd60e51b815260040161011e90610670565b61046f8261047c565b9392505050565b60015481565b60006127106001548361048f919061078e565b6103ef919061076e565b6000602082840312156104aa578081fd5b813561046f816107c3565b600080604083850312156104c7578081fd5b82356104d2816107c3565b946020939093013593505050565b6000602082840312156104f1578081fd5b8151801515811461046f578182fd5b600060208284031215610511578081fd5b5051919050565b60008060008060006080868803121561052f578081fd5b853561053a816107c3565b9450602086013561054a816107c3565b935060408601359250606086013567ffffffffffffffff8082111561056d578283fd5b818801915088601f830112610580578283fd5b81358181111561058e578384fd5b89602082850101111561059f578384fd5b9699959850939650602001949392505050565b6001600160a01b0391909116815260200190565b6001600160a01b039384168152919092166020820152604081019190915260600190565b6001600160a01b03878116825286166020820152604081018590526060810184905260a06080820181905281018290526000828460c084013781830160c090810191909152601f909201601f1916010195945050505050565b6001600160a01b03929092168252602082015260400190565b901515815260200190565b90815260200190565b60208082526021908201527f466c6173684c656e6465723a20556e737570706f727465642063757272656e636040820152607960f81b606082015260800190565b6020808252601c908201527f466c6173684c656e6465723a2043616c6c6261636b206661696c656400000000604082015260600190565b60208082526019908201527f466c6173684c656e6465723a205265706179206661696c656400000000000000604082015260600190565b6020808252601c908201527f466c6173684c656e6465723a205472616e73666572206661696c656400000000604082015260600190565b60008219821115610769576107696107ad565b500190565b60008261078957634e487b7160e01b81526012600452602481fd5b500490565b60008160001904831182151516156107a8576107a86107ad565b500290565b634e487b7160e01b600052601160045260246000fd5b6001600160a01b03811681146107d857600080fd5b5056fea26469706673582212200f228399e392452cecfd343143ef9b9bfde0aa36129841f3270562025ac8980864736f6c63430008000033",
			"opcodes": "PUSH1 0x80 PUSH1 0x40 MSTORE CALLVALUE DUP1 ISZERO PUSH2 0x10 JUMPI PUSH1 0x0 DUP1 REVERT JUMPDEST POP PUSH1 0x40 MLOAD PUSH2 0x9EF CODESIZE SUB DUP1 PUSH2 0x9EF DUP4 CODECOPY DUP2 ADD PUSH1 0x40 DUP2 SWAP1 MSTORE PUSH2 0x2F SWAP2 PUSH2 0xCA JUMP JUMPDEST PUSH1 0x0 JUMPDEST DUP3 MLOAD DUP2 LT ISZERO PUSH2 0xA4 JUMPI PUSH1 0x1 PUSH1 0x0 DUP1 DUP6 DUP5 DUP2 MLOAD DUP2 LT PUSH2 0x60 JUMPI PUSH4 0x4E487B71 PUSH1 0xE0 SHL PUSH1 0x0 MSTORE PUSH1 0x32 PUSH1 0x4 MSTORE PUSH1 0x24 PUSH1 0x0 REVERT JUMPDEST PUSH1 0x20 SWAP1 DUP2 MUL SWAP2 SWAP1 SWAP2 ADD DUP2 ADD MLOAD PUSH1 0x1 PUSH1 0x1 PUSH1 0xA0 SHL SUB AND DUP3 MSTORE DUP2 ADD SWAP2 SWAP1 SWAP2 MSTORE PUSH1 0x40 ADD PUSH1 0x0 KECCAK256 DUP1 SLOAD PUSH1 0xFF NOT AND SWAP2 ISZERO ISZERO SWAP2 SWAP1 SWAP2 OR SWAP1 SSTORE DUP1 PUSH2 0x9C DUP2 PUSH2 0x192 JUMP JUMPDEST SWAP2 POP POP PUSH2 0x32 JUMP JUMPDEST POP PUSH1 0x1 SSTORE POP PUSH2 0x1CF JUMP JUMPDEST DUP1 MLOAD PUSH1 0x1 PUSH1 0x1 PUSH1 0xA0 SHL SUB DUP2 AND DUP2 EQ PUSH2 0xC5 JUMPI PUSH1 0x0 DUP1 REVERT JUMPDEST SWAP2 SWAP1 POP JUMP JUMPDEST PUSH1 0x0 DUP1 PUSH1 0x40 DUP4 DUP6 SUB SLT ISZERO PUSH2 0xDC JUMPI DUP2 DUP3 REVERT JUMPDEST DUP3 MLOAD PUSH1 0x1 PUSH1 0x1 PUSH1 0x40 SHL SUB DUP1 DUP3 GT ISZERO PUSH2 0xF2 JUMPI DUP4 DUP5 REVERT JUMPDEST DUP2 DUP6 ADD SWAP2 POP DUP6 PUSH1 0x1F DUP4 ADD SLT PUSH2 0x105 JUMPI DUP4 DUP5 REVERT JUMPDEST DUP2 MLOAD PUSH1 0x20 DUP3 DUP3 GT ISZERO PUSH2 0x119 JUMPI PUSH2 0x119 PUSH2 0x1B9 JUMP JUMPDEST DUP1 DUP3 MUL PUSH1 0x40 MLOAD DUP3 DUP3 DUP3 ADD ADD DUP2 DUP2 LT DUP7 DUP3 GT OR ISZERO PUSH2 0x138 JUMPI PUSH2 0x138 PUSH2 0x1B9 JUMP JUMPDEST PUSH1 0x40 MSTORE DUP4 DUP2 MSTORE DUP3 DUP2 ADD SWAP5 POP DUP6 DUP4 ADD DUP3 DUP8 ADD DUP5 ADD DUP12 LT ISZERO PUSH2 0x156 JUMPI DUP9 DUP10 REVERT JUMPDEST DUP9 SWAP7 POP JUMPDEST DUP5 DUP8 LT ISZERO PUSH2 0x17F JUMPI PUSH2 0x16B DUP2 PUSH2 0xAE JUMP JUMPDEST DUP7 MSTORE PUSH1 0x1 SWAP7 SWAP1 SWAP7 ADD SWAP6 SWAP5 DUP4 ADD SWAP5 DUP4 ADD PUSH2 0x15A JUMP JUMPDEST POP SWAP8 SWAP1 SWAP2 ADD MLOAD SWAP7 SWAP9 SWAP7 SWAP8 POP POP POP POP POP POP POP JUMP JUMPDEST PUSH1 0x0 PUSH1 0x0 NOT DUP3 EQ ISZERO PUSH2 0x1B2 JUMPI PUSH4 0x4E487B71 PUSH1 0xE0 SHL DUP2 MSTORE PUSH1 0x11 PUSH1 0x4 MSTORE PUSH1 0x24 DUP2 REVERT JUMPDEST POP PUSH1 0x1 ADD SWAP1 JUMP JUMPDEST PUSH4 0x4E487B71 PUSH1 0xE0 SHL PUSH1 0x0 MSTORE PUSH1 0x41 PUSH1 0x4 MSTORE PUSH1 0x24 PUSH1 0x0 REVERT JUMPDEST PUSH2 0x811 DUP1 PUSH2 0x1DE PUSH1 0x0 CODECOPY PUSH1 0x0 RETURN INVALID PUSH1 0x80 PUSH1 0x40 MSTORE CALLVALUE DUP1 ISZERO PUSH2 0x10 JUMPI PUSH1 0x0 DUP1 REVERT JUMPDEST POP PUSH1 0x4 CALLDATASIZE LT PUSH2 0x62 JUMPI PUSH1 0x0 CALLDATALOAD PUSH1 0xE0 SHR DUP1 PUSH4 0x5CFFE9DE EQ PUSH2 0x67 JUMPI DUP1 PUSH4 0x613255AB EQ PUSH2 0x90 JUMPI DUP1 PUSH4 0x68C4AC26 EQ PUSH2 0xB0 JUMPI DUP1 PUSH4 0x8237E538 EQ PUSH2 0xC3 JUMPI DUP1 PUSH4 0xD9D98CE4 EQ PUSH2 0xCB JUMPI DUP1 PUSH4 0xDDCA3F43 EQ PUSH2 0xDE JUMPI JUMPDEST PUSH1 0x0 DUP1 REVERT JUMPDEST PUSH2 0x7A PUSH2 0x75 CALLDATASIZE PUSH1 0x4 PUSH2 0x518 JUMP JUMPDEST PUSH2 0xE6 JUMP JUMPDEST PUSH1 0x40 MLOAD PUSH2 0x87 SWAP2 SWAP1 PUSH2 0x65C JUMP JUMPDEST PUSH1 0x40 MLOAD DUP1 SWAP2 SUB SWAP1 RETURN JUMPDEST PUSH2 0xA3 PUSH2 0x9E CALLDATASIZE PUSH1 0x4 PUSH2 0x499 JUMP JUMPDEST PUSH2 0x34C JUMP JUMPDEST PUSH1 0x40 MLOAD PUSH2 0x87 SWAP2 SWAP1 PUSH2 0x667 JUMP JUMPDEST PUSH2 0x7A PUSH2 0xBE CALLDATASIZE PUSH1 0x4 PUSH2 0x499 JUMP JUMPDEST PUSH2 0x3F5 JUMP JUMPDEST PUSH2 0xA3 PUSH2 0x40A JUMP JUMPDEST PUSH2 0xA3 PUSH2 0xD9 CALLDATASIZE PUSH1 0x4 PUSH2 0x4B5 JUMP JUMPDEST PUSH2 0x42E JUMP JUMPDEST PUSH2 0xA3 PUSH2 0x476 JUMP JUMPDEST PUSH1 0x1 PUSH1 0x1 PUSH1 0xA0 SHL SUB DUP5 AND PUSH1 0x0 SWAP1 DUP2 MSTORE PUSH1 0x20 DUP2 SWAP1 MSTORE PUSH1 0x40 DUP2 KECCAK256 SLOAD PUSH1 0xFF AND PUSH2 0x127 JUMPI PUSH1 0x40 MLOAD PUSH3 0x461BCD PUSH1 0xE5 SHL DUP2 MSTORE PUSH1 0x4 ADD PUSH2 0x11E SWAP1 PUSH2 0x670 JUMP JUMPDEST PUSH1 0x40 MLOAD DUP1 SWAP2 SUB SWAP1 REVERT JUMPDEST PUSH1 0x0 PUSH2 0x132 DUP6 PUSH2 0x47C JUMP JUMPDEST PUSH1 0x40 MLOAD PUSH4 0xA9059CBB PUSH1 0xE0 SHL DUP2 MSTORE SWAP1 SWAP2 POP PUSH1 0x1 PUSH1 0x1 PUSH1 0xA0 SHL SUB DUP8 AND SWAP1 PUSH4 0xA9059CBB SWAP1 PUSH2 0x163 SWAP1 DUP11 SWAP1 DUP10 SWAP1 PUSH1 0x4 ADD PUSH2 0x643 JUMP JUMPDEST PUSH1 0x20 PUSH1 0x40 MLOAD DUP1 DUP4 SUB DUP2 PUSH1 0x0 DUP8 DUP1 EXTCODESIZE ISZERO DUP1 ISZERO PUSH2 0x17D JUMPI PUSH1 0x0 DUP1 REVERT JUMPDEST POP GAS CALL ISZERO DUP1 ISZERO PUSH2 0x191 JUMPI RETURNDATASIZE PUSH1 0x0 DUP1 RETURNDATACOPY RETURNDATASIZE PUSH1 0x0 REVERT JUMPDEST POP POP POP POP PUSH1 0x40 MLOAD RETURNDATASIZE PUSH1 0x1F NOT PUSH1 0x1F DUP3 ADD AND DUP3 ADD DUP1 PUSH1 0x40 MSTORE POP DUP2 ADD SWAP1 PUSH2 0x1B5 SWAP2 SWAP1 PUSH2 0x4E0 JUMP JUMPDEST PUSH2 0x1D1 JUMPI PUSH1 0x40 MLOAD PUSH3 0x461BCD PUSH1 0xE5 SHL DUP2 MSTORE PUSH1 0x4 ADD PUSH2 0x11E SWAP1 PUSH2 0x71F JUMP JUMPDEST PUSH1 0x40 MLOAD PUSH4 0x23E30C8B PUSH1 0xE0 SHL DUP2 MSTORE PUSH32 0x439148F0BBC682CA079E46D6E2C2F0C1E3B820F1A291B069D8882ABF8CF18DD9 SWAP1 PUSH1 0x1 PUSH1 0x1 PUSH1 0xA0 SHL SUB DUP10 AND SWAP1 PUSH4 0x23E30C8B SWAP1 PUSH2 0x229 SWAP1 CALLER SWAP1 DUP12 SWAP1 DUP12 SWAP1 DUP9 SWAP1 DUP13 SWAP1 DUP13 SWAP1 PUSH1 0x4 ADD PUSH2 0x5EA JUMP JUMPDEST PUSH1 0x20 PUSH1 0x40 MLOAD DUP1 DUP4 SUB DUP2 PUSH1 0x0 DUP8 DUP1 EXTCODESIZE ISZERO DUP1 ISZERO PUSH2 0x243 JUMPI PUSH1 0x0 DUP1 REVERT JUMPDEST POP GAS CALL ISZERO DUP1 ISZERO PUSH2 0x257 JUMPI RETURNDATASIZE PUSH1 0x0 DUP1 RETURNDATACOPY RETURNDATASIZE PUSH1 0x0 REVERT JUMPDEST POP POP POP POP PUSH1 0x40 MLOAD RETURNDATASIZE PUSH1 0x1F NOT PUSH1 0x1F DUP3 ADD AND DUP3 ADD DUP1 PUSH1 0x40 MSTORE POP DUP2 ADD SWAP1 PUSH2 0x27B SWAP2 SWAP1 PUSH2 0x500 JUMP JUMPDEST EQ PUSH2 0x298 JUMPI PUSH1 0x40 MLOAD PUSH3 0x461BCD PUSH1 0xE5 SHL DUP2 MSTORE PUSH1 0x4 ADD PUSH2 0x11E SWAP1 PUSH2 0x6B1 JUMP JUMPDEST PUSH1 0x1 PUSH1 0x1 PUSH1 0xA0 SHL SUB DUP7 AND PUSH4 0x23B872DD DUP9 ADDRESS PUSH2 0x2B3 DUP6 DUP11 PUSH2 0x756 JUMP JUMPDEST PUSH1 0x40 MLOAD DUP5 PUSH4 0xFFFFFFFF AND PUSH1 0xE0 SHL DUP2 MSTORE PUSH1 0x4 ADD PUSH2 0x2D1 SWAP4 SWAP3 SWAP2 SWAP1 PUSH2 0x5C6 JUMP JUMPDEST PUSH1 0x20 PUSH1 0x40 MLOAD DUP1 DUP4 SUB DUP2 PUSH1 0x0 DUP8 DUP1 EXTCODESIZE ISZERO DUP1 ISZERO PUSH2 0x2EB JUMPI PUSH1 0x0 DUP1 REVERT JUMPDEST POP GAS CALL ISZERO DUP1 ISZERO PUSH2 0x2FF JUMPI RETURNDATASIZE PUSH1 0x0 DUP1 RETURNDATACOPY RETURNDATASIZE PUSH1 0x0 REVERT JUMPDEST POP POP POP POP PUSH1 0x40 MLOAD RETURNDATASIZE PUSH1 0x1F NOT PUSH1 0x1F DUP3 ADD AND DUP3 ADD DUP1 PUSH1 0x40 MSTORE POP DUP2 ADD SWAP1 PUSH2 0x323 SWAP2 SWAP1 PUSH2 0x4E0 JUMP JUMPDEST PUSH2 0x33F JUMPI PUSH1 0x40 MLOAD PUSH3 0x461BCD PUSH1 0xE5 SHL DUP2 MSTORE PUSH1 0x4 ADD PUSH2 0x11E SWAP1 PUSH2 0x6E8 JUMP JUMPDEST POP PUSH1 0x1 SWAP7 SWAP6 POP POP POP POP POP POP JUMP JUMPDEST PUSH1 0x1 PUSH1 0x1 PUSH1 0xA0 SHL SUB DUP2 AND PUSH1 0x0 SWAP1 DUP2 MSTORE PUSH1 0x20 DUP2 SWAP1 MSTORE PUSH1 0x40 DUP2 KECCAK256 SLOAD PUSH1 0xFF AND PUSH2 0x373 JUMPI PUSH1 0x0 PUSH2 0x3EF JUMP JUMPDEST PUSH1 0x40 MLOAD PUSH4 0x70A08231 PUSH1 0xE0 SHL DUP2 MSTORE PUSH1 0x1 PUSH1 0x1 PUSH1 0xA0 SHL SUB DUP4 AND SWAP1 PUSH4 0x70A08231 SWAP1 PUSH2 0x39F SWAP1 ADDRESS SWAP1 PUSH1 0x4 ADD PUSH2 0x5B2 JUMP JUMPDEST PUSH1 0x20 PUSH1 0x40 MLOAD DUP1 DUP4 SUB DUP2 DUP7 DUP1 EXTCODESIZE ISZERO DUP1 ISZERO PUSH2 0x3B7 JUMPI PUSH1 0x0 DUP1 REVERT JUMPDEST POP GAS STATICCALL ISZERO DUP1 ISZERO PUSH2 0x3CB JUMPI RETURNDATASIZE PUSH1 0x0 DUP1 RETURNDATACOPY RETURNDATASIZE PUSH1 0x0 REVERT JUMPDEST POP POP POP POP PUSH1 0x40 MLOAD RETURNDATASIZE PUSH1 0x1F NOT PUSH1 0x1F DUP3 ADD AND DUP3 ADD DUP1 PUSH1 0x40 MSTORE POP DUP2 ADD SWAP1 PUSH2 0x3EF SWAP2 SWAP1 PUSH2 0x500 JUMP JUMPDEST SWAP3 SWAP2 POP POP JUMP JUMPDEST PUSH1 0x0 PUSH1 0x20 DUP2 SWAP1 MSTORE SWAP1 DUP2 MSTORE PUSH1 0x40 SWAP1 KECCAK256 SLOAD PUSH1 0xFF AND DUP2 JUMP JUMPDEST PUSH32 0x439148F0BBC682CA079E46D6E2C2F0C1E3B820F1A291B069D8882ABF8CF18DD9 DUP2 JUMP JUMPDEST PUSH1 0x1 PUSH1 0x1 PUSH1 0xA0 SHL SUB DUP3 AND PUSH1 0x0 SWAP1 DUP2 MSTORE PUSH1 0x20 DUP2 SWAP1 MSTORE PUSH1 0x40 DUP2 KECCAK256 SLOAD PUSH1 0xFF AND PUSH2 0x466 JUMPI PUSH1 0x40 MLOAD PUSH3 0x461BCD PUSH1 0xE5 SHL DUP2 MSTORE PUSH1 0x4 ADD PUSH2 0x11E SWAP1 PUSH2 0x670 JUMP JUMPDEST PUSH2 0x46F DUP3 PUSH2 0x47C JUMP JUMPDEST SWAP4 SWAP3 POP POP POP JUMP JUMPDEST PUSH1 0x1 SLOAD DUP2 JUMP JUMPDEST PUSH1 0x0 PUSH2 0x2710 PUSH1 0x1 SLOAD DUP4 PUSH2 0x48F SWAP2 SWAP1 PUSH2 0x78E JUMP JUMPDEST PUSH2 0x3EF SWAP2 SWAP1 PUSH2 0x76E JUMP JUMPDEST PUSH1 0x0 PUSH1 0x20 DUP3 DUP5 SUB SLT ISZERO PUSH2 0x4AA JUMPI DUP1 DUP2 REVERT JUMPDEST DUP2 CALLDATALOAD PUSH2 0x46F DUP2 PUSH2 0x7C3 JUMP JUMPDEST PUSH1 0x0 DUP1 PUSH1 0x40 DUP4 DUP6 SUB SLT ISZERO PUSH2 0x4C7 JUMPI DUP1 DUP2 REVERT JUMPDEST DUP3 CALLDATALOAD PUSH2 0x4D2 DUP2 PUSH2 0x7C3 JUMP JUMPDEST SWAP5 PUSH1 0x20 SWAP4 SWAP1 SWAP4 ADD CALLDATALOAD SWAP4 POP POP POP JUMP JUMPDEST PUSH1 0x0 PUSH1 0x20 DUP3 DUP5 SUB SLT ISZERO PUSH2 0x4F1 JUMPI DUP1 DUP2 REVERT JUMPDEST DUP2 MLOAD DUP1 ISZERO ISZERO DUP2 EQ PUSH2 0x46F JUMPI DUP2 DUP3 REVERT JUMPDEST PUSH1 0x0 PUSH1 0x20 DUP3 DUP5 SUB SLT ISZERO PUSH2 0x511 JUMPI DUP1 DUP2 REVERT JUMPDEST POP MLOAD SWAP2 SWAP1 POP JUMP JUMPDEST PUSH1 0x0 DUP1 PUSH1 0x0 DUP1 PUSH1 0x0 PUSH1 0x80 DUP7 DUP9 SUB SLT ISZERO PUSH2 0x52F JUMPI DUP1 DUP2 REVERT JUMPDEST DUP6 CALLDATALOAD PUSH2 0x53A DUP2 PUSH2 0x7C3 JUMP JUMPDEST SWAP5 POP PUSH1 0x20 DUP7 ADD CALLDATALOAD PUSH2 0x54A DUP2 PUSH2 0x7C3 JUMP JUMPDEST SWAP4 POP PUSH1 0x40 DUP7 ADD CALLDATALOAD SWAP3 POP PUSH1 0x60 DUP7 ADD CALLDATALOAD PUSH8 0xFFFFFFFFFFFFFFFF DUP1 DUP3 GT ISZERO PUSH2 0x56D JUMPI DUP3 DUP4 REVERT JUMPDEST DUP2 DUP9 ADD SWAP2 POP DUP9 PUSH1 0x1F DUP4 ADD SLT PUSH2 0x580 JUMPI DUP3 DUP4 REVERT JUMPDEST DUP2 CALLDATALOAD DUP2 DUP2 GT ISZERO PUSH2 0x58E JUMPI DUP4 DUP5 REVERT JUMPDEST DUP10 PUSH1 0x20 DUP3 DUP6 ADD ADD GT ISZERO PUSH2 0x59F JUMPI DUP4 DUP5 REVERT JUMPDEST SWAP7 SWAP10 SWAP6 SWAP9 POP SWAP4 SWAP7 POP PUSH1 0x20 ADD SWAP5 SWAP4 SWAP3 POP POP POP JUMP JUMPDEST PUSH1 0x1 PUSH1 0x1 PUSH1 0xA0 SHL SUB SWAP2 SWAP1 SWAP2 AND DUP2 MSTORE PUSH1 0x20 ADD SWAP1 JUMP JUMPDEST PUSH1 0x1 PUSH1 0x1 PUSH1 0xA0 SHL SUB SWAP4 DUP5 AND DUP2 MSTORE SWAP2 SWAP1 SWAP3 AND PUSH1 0x20 DUP3 ADD MSTORE PUSH1 0x40 DUP2 ADD SWAP2 SWAP1 SWAP2 MSTORE PUSH1 0x60 ADD SWAP1 JUMP JUMPDEST PUSH1 0x1 PUSH1 0x1 PUSH1 0xA0 SHL SUB DUP8 DUP2 AND DUP3 MSTORE DUP7 AND PUSH1 0x20 DUP3 ADD MSTORE PUSH1 0x40 DUP2 ADD DUP6 SWAP1 MSTORE PUSH1 0x60 DUP2 ADD DUP5 SWAP1 MSTORE PUSH1 0xA0 PUSH1 0x80 DUP3 ADD DUP2 SWAP1 MSTORE DUP2 ADD DUP3 SWAP1 MSTORE PUSH1 0x0 DUP3 DUP5 PUSH1 0xC0 DUP5 ADD CALLDATACOPY DUP2 DUP4 ADD PUSH1 0xC0 SWAP1 DUP2 ADD SWAP2 SWAP1 SWAP2 MSTORE PUSH1 0x1F SWAP1 SWAP3 ADD PUSH1 0x1F NOT AND ADD ADD SWAP6 SWAP5 POP POP POP POP POP JUMP JUMPDEST PUSH1 0x1 PUSH1 0x1 PUSH1 0xA0 SHL SUB SWAP3 SWAP1 SWAP3 AND DUP3 MSTORE PUSH1 0x20 DUP3 ADD MSTORE PUSH1 0x40 ADD SWAP1 JUMP JUMPDEST SWAP1 ISZERO ISZERO DUP2 MSTORE PUSH1 0x20 ADD SWAP1 JUMP JUMPDEST SWAP1 DUP2 MSTORE PUSH1 0x20 ADD SWAP1 JUMP JUMPDEST PUSH1 0x20 DUP1 DUP3 MSTORE PUSH1 0x21 SWAP1 DUP3 ADD MSTORE PUSH32 0x466C6173684C656E6465723A20556E737570706F727465642063757272656E63 PUSH1 0x40 DUP3 ADD MSTORE PUSH1 0x79 PUSH1 0xF8 SHL PUSH1 0x60 DUP3 ADD MSTORE PUSH1 0x80 ADD SWAP1 JUMP JUMPDEST PUSH1 0x20 DUP1 DUP3 MSTORE PUSH1 0x1C SWAP1 DUP3 ADD MSTORE PUSH32 0x466C6173684C656E6465723A2043616C6C6261636B206661696C656400000000 PUSH1 0x40 DUP3 ADD MSTORE PUSH1 0x60 ADD SWAP1 JUMP JUMPDEST PUSH1 0x20 DUP1 DUP3 MSTORE PUSH1 0x19 SWAP1 DUP3 ADD MSTORE PUSH32 0x466C6173684C656E6465723A205265706179206661696C656400000000000000 PUSH1 0x40 DUP3 ADD MSTORE PUSH1 0x60 ADD SWAP1 JUMP JUMPDEST PUSH1 0x20 DUP1 DUP3 MSTORE PUSH1 0x1C SWAP1 DUP3 ADD MSTORE PUSH32 0x466C6173684C656E6465723A205472616E73666572206661696C656400000000 PUSH1 0x40 DUP3 ADD MSTORE PUSH1 0x60 ADD SWAP1 JUMP JUMPDEST PUSH1 0x0 DUP3 NOT DUP3 GT ISZERO PUSH2 0x769 JUMPI PUSH2 0x769 PUSH2 0x7AD JUMP JUMPDEST POP ADD SWAP1 JUMP JUMPDEST PUSH1 0x0 DUP3 PUSH2 0x789 JUMPI PUSH4 0x4E487B71 PUSH1 0xE0 SHL DUP2 MSTORE PUSH1 0x12 PUSH1 0x4 MSTORE PUSH1 0x24 DUP2 REVERT JUMPDEST POP DIV SWAP1 JUMP JUMPDEST PUSH1 0x0 DUP2 PUSH1 0x0 NOT DIV DUP4 GT DUP3 ISZERO ISZERO AND ISZERO PUSH2 0x7A8 JUMPI PUSH2 0x7A8 PUSH2 0x7AD JUMP JUMPDEST POP MUL SWAP1 JUMP JUMPDEST PUSH4 0x4E487B71 PUSH1 0xE0 SHL PUSH1 0x0 MSTORE PUSH1 0x11 PUSH1 0x4 MSTORE PUSH1 0x24 PUSH1 0x0 REVERT JUMPDEST PUSH1 0x1 PUSH1 0x1 PUSH1 0xA0 SHL SUB DUP2 AND DUP2 EQ PUSH2 0x7D8 JUMPI PUSH1 0x0 DUP1 REVERT JUMPDEST POP JUMP INVALID LOG2 PUSH5 0x6970667358 0x22 SLT KECCAK256 0xF 0x22 DUP4 SWAP10 0xE3 SWAP3 GASLIMIT 0x2C 0xEC REVERT CALLVALUE BALANCE NUMBER 0xEF SWAP12 SWAP12 REVERT 0xE0 0xAA CALLDATASIZE SLT SWAP9 COINBASE RETURN 0x27 SDIV PUSH3 0x25AC8 SWAP9 ADDMOD PUSH5 0x736F6C6343 STOP ADDMOD STOP STOP CALLER "
		},
		"gasEstimates": {
			"creation": {
				"codeDepositCost": "413000",
				"executionCost": "infinite",
				"totalCost": "infinite"
			},
			"external": {
				"CALLBACK_SUCCESS()": "272",
				"fee()": "1116",
				"flashFee(address,uint256)": "2387",
				"flashLoan(address,address,uint256,bytes)": "infinite",
				"maxFlashLoan(address)": "infinite",
				"supportedTokens(address)": "1283"
			},
			"internal": {
				"_flashFee(uint256)": "983"
			}
		},
		"methodIdentifiers": {
			"CALLBACK_SUCCESS()": "8237e538",
			"fee()": "ddca3f43",
			"flashFee(address,uint256)": "d9d98ce4",
			"flashLoan(address,address,uint256,bytes)": "5cffe9de",
			"maxFlashLoan(address)": "613255ab",
			"supportedTokens(address)": "68c4ac26"
		}
	},
	"abi": [
		{
			"inputs": [
				{
					"internalType": "address[]",
					"name": "supportedTokens_",
					"type": "address[]"
				},
				{
					"internalType": "uint256",
					"name": "fee_",
					"type": "uint256"
				}
			],
			"stateMutability": "nonpayable",
			"type": "constructor"
		},
		{
			"inputs": [],
			"name": "CALLBACK_SUCCESS",
			"outputs": [
				{
					"internalType": "bytes32",
					"name": "",
					"type": "bytes32"
				}
			],
			"stateMutability": "view",
			"type": "function"
		},
		{
			"inputs": [],
			"name": "fee",
			"outputs": [
				{
					"internalType": "uint256",
					"name": "",
					"type": "uint256"
				}
			],
			"stateMutability": "view",
			"type": "function"
		},
		{
			"inputs": [
				{
					"internalType": "address",
					"name": "token",
					"type": "address"
				},
				{
					"internalType": "uint256",
					"name": "amount",
					"type": "uint256"
				}
			],
			"name": "flashFee",
			"outputs": [
				{
					"internalType": "uint256",
					"name": "",
					"type": "uint256"
				}
			],
			"stateMutability": "view",
			"type": "function"
		},
		{
			"inputs": [
				{
					"internalType": "contract IERC3156FlashBorrower",
					"name": "receiver",
					"type": "address"
				},
				{
					"internalType": "address",
					"name": "token",
					"type": "address"
				},
				{
					"internalType": "uint256",
					"name": "amount",
					"type": "uint256"
				},
				{
					"internalType": "bytes",
					"name": "data",
					"type": "bytes"
				}
			],
			"name": "flashLoan",
			"outputs": [
				{
					"internalType": "bool",
					"name": "",
					"type": "bool"
				}
			],
			"stateMutability": "nonpayable",
			"type": "function"
		},
		{
			"inputs": [
				{
					"internalType": "address",
					"name": "token",
					"type": "address"
				}
			],
			"name": "maxFlashLoan",
			"outputs": [
				{
					"internalType": "uint256",
					"name": "",
					"type": "uint256"
				}
			],
			"stateMutability": "view",
			"type": "function"
		},
		{
			"inputs": [
				{
					"internalType": "address",
					"name": "",
					"type": "address"
				}
			],
			"name": "supportedTokens",
			"outputs": [
				{
					"internalType": "bool",
					"name": "",
					"type": "bool"
				}
			],
			"stateMutability": "view",
			"type": "function"
		}
	]
}