{
	"data": {
		"bytecode": {
			"linkReferences": {},
			"object": "608060405234801561001057600080fd5b506103a1806100206000396000f3fe608060405234801561001057600080fd5b50600436106100575760003560e01c80630dfe16811461005c5780631f3abecb14610080578063550e08531461009a57806371ca337d146100d0578063933ee047146100d8575b600080fd5b6100646100e0565b604080516001600160a01b039092168252519081900360200190f35b6100886100ef565b60408051918252519081900360200190f35b610064600480360360608110156100b057600080fd5b506001600160a01b038135811691602081013590911690604001356100f5565b61008861035f565b610088610365565b6000546001600160a01b031681565b60015481565b6040805163e6a4390560e01b81526001600160a01b038581166004830152841660248201529051600091829173eb8749f7394afe2a5cf44251d196763c1e2ac5cb9163e6a43905916044808301926020929190829003018186803b15801561015c57600080fd5b505afa158015610170573d6000803e3d6000fd5b505050506040513d602081101561018657600080fd5b505160408051630240bc6b60e21b81529051919250829160009182916001600160a01b03851691630902f1ac916004808301926060929190829003018186803b1580156101d257600080fd5b505afa1580156101e6573d6000803e3d6000fd5b505050506040513d60608110156101fc57600080fd5b50805160209182015160408051630dfe168160e01b815290516dffffffffffffffffffffffffffff93841696509290911693506001600160a01b03861692630dfe168192600480840193829003018186803b15801561025a57600080fd5b505afa15801561026e573d6000803e3d6000fd5b505050506040513d602081101561028457600080fd5b5051600080546001600160a01b0319166001600160a01b0392831617908190558116908916146102b457806102b6565b815b6001556000546001600160a01b038981169116146102d457816102d6565b805b60028190556001548702816102e757fe5b04600381905550826001600160a01b0316630dfe16816040518163ffffffff1660e01b815260040160206040518083038186803b15801561032757600080fd5b505afa15801561033b573d6000803e3d6000fd5b505050506040513d602081101561035157600080fd5b505198975050505050505050565b60035481565b6002548156fea26469706673582212206b6cf841c197fd4b0405117e84a61e584ecb66f92ada751fe892d6d4bd828d8e64736f6c63430006060033",
			"opcodes": "PUSH1 0x80 PUSH1 0x40 MSTORE CALLVALUE DUP1 ISZERO PUSH2 0x10 JUMPI PUSH1 0x0 DUP1 REVERT JUMPDEST POP PUSH2 0x3A1 DUP1 PUSH2 0x20 PUSH1 0x0 CODECOPY PUSH1 0x0 RETURN INVALID PUSH1 0x80 PUSH1 0x40 MSTORE CALLVALUE DUP1 ISZERO PUSH2 0x10 JUMPI PUSH1 0x0 DUP1 REVERT JUMPDEST POP PUSH1 0x4 CALLDATASIZE LT PUSH2 0x57 JUMPI PUSH1 0x0 CALLDATALOAD PUSH1 0xE0 SHR DUP1 PUSH4 0xDFE1681 EQ PUSH2 0x5C JUMPI DUP1 PUSH4 0x1F3ABECB EQ PUSH2 0x80 JUMPI DUP1 PUSH4 0x550E0853 EQ PUSH2 0x9A JUMPI DUP1 PUSH4 0x71CA337D EQ PUSH2 0xD0 JUMPI DUP1 PUSH4 0x933EE047 EQ PUSH2 0xD8 JUMPI JUMPDEST PUSH1 0x0 DUP1 REVERT JUMPDEST PUSH2 0x64 PUSH2 0xE0 JUMP JUMPDEST PUSH1 0x40 DUP1 MLOAD PUSH1 0x1 PUSH1 0x1 PUSH1 0xA0 SHL SUB SWAP1 SWAP3 AND DUP3 MSTORE MLOAD SWAP1 DUP2 SWAP1 SUB PUSH1 0x20 ADD SWAP1 RETURN JUMPDEST PUSH2 0x88 PUSH2 0xEF JUMP JUMPDEST PUSH1 0x40 DUP1 MLOAD SWAP2 DUP3 MSTORE MLOAD SWAP1 DUP2 SWAP1 SUB PUSH1 0x20 ADD SWAP1 RETURN JUMPDEST PUSH2 0x64 PUSH1 0x4 DUP1 CALLDATASIZE SUB PUSH1 0x60 DUP2 LT ISZERO PUSH2 0xB0 JUMPI PUSH1 0x0 DUP1 REVERT JUMPDEST POP PUSH1 0x1 PUSH1 0x1 PUSH1 0xA0 SHL SUB DUP2 CALLDATALOAD DUP2 AND SWAP2 PUSH1 0x20 DUP2 ADD CALLDATALOAD SWAP1 SWAP2 AND SWAP1 PUSH1 0x40 ADD CALLDATALOAD PUSH2 0xF5 JUMP JUMPDEST PUSH2 0x88 PUSH2 0x35F JUMP JUMPDEST PUSH2 0x88 PUSH2 0x365 JUMP JUMPDEST PUSH1 0x0 SLOAD PUSH1 0x1 PUSH1 0x1 PUSH1 0xA0 SHL SUB AND DUP2 JUMP JUMPDEST PUSH1 0x1 SLOAD DUP2 JUMP JUMPDEST PUSH1 0x40 DUP1 MLOAD PUSH4 0xE6A43905 PUSH1 0xE0 SHL DUP2 MSTORE PUSH1 0x1 PUSH1 0x1 PUSH1 0xA0 SHL SUB DUP6 DUP2 AND PUSH1 0x4 DUP4 ADD MSTORE DUP5 AND PUSH1 0x24 DUP3 ADD MSTORE SWAP1 MLOAD PUSH1 0x0 SWAP2 DUP3 SWAP2 PUSH20 0xEB8749F7394AFE2A5CF44251D196763C1E2AC5CB SWAP2 PUSH4 0xE6A43905 SWAP2 PUSH1 0x44 DUP1 DUP4 ADD SWAP3 PUSH1 0x20 SWAP3 SWAP2 SWAP1 DUP3 SWAP1 SUB ADD DUP2 DUP7 DUP1 EXTCODESIZE ISZERO DUP1 ISZERO PUSH2 0x15C JUMPI PUSH1 0x0 DUP1 REVERT JUMPDEST POP GAS STATICCALL ISZERO DUP1 ISZERO PUSH2 0x170 JUMPI RETURNDATASIZE PUSH1 0x0 DUP1 RETURNDATACOPY RETURNDATASIZE PUSH1 0x0 REVERT JUMPDEST POP POP POP POP PUSH1 0x40 MLOAD RETURNDATASIZE PUSH1 0x20 DUP2 LT ISZERO PUSH2 0x186 JUMPI PUSH1 0x0 DUP1 REVERT JUMPDEST POP MLOAD PUSH1 0x40 DUP1 MLOAD PUSH4 0x240BC6B PUSH1 0xE2 SHL DUP2 MSTORE SWAP1 MLOAD SWAP2 SWAP3 POP DUP3 SWAP2 PUSH1 0x0 SWAP2 DUP3 SWAP2 PUSH1 0x1 PUSH1 0x1 PUSH1 0xA0 SHL SUB DUP6 AND SWAP2 PUSH4 0x902F1AC SWAP2 PUSH1 0x4 DUP1 DUP4 ADD SWAP3 PUSH1 0x60 SWAP3 SWAP2 SWAP1 DUP3 SWAP1 SUB ADD DUP2 DUP7 DUP1 EXTCODESIZE ISZERO DUP1 ISZERO PUSH2 0x1D2 JUMPI PUSH1 0x0 DUP1 REVERT JUMPDEST POP GAS STATICCALL ISZERO DUP1 ISZERO PUSH2 0x1E6 JUMPI RETURNDATASIZE PUSH1 0x0 DUP1 RETURNDATACOPY RETURNDATASIZE PUSH1 0x0 REVERT JUMPDEST POP POP POP POP PUSH1 0x40 MLOAD RETURNDATASIZE PUSH1 0x60 DUP2 LT ISZERO PUSH2 0x1FC JUMPI PUSH1 0x0 DUP1 REVERT JUMPDEST POP DUP1 MLOAD PUSH1 0x20 SWAP2 DUP3 ADD MLOAD PUSH1 0x40 DUP1 MLOAD PUSH4 0xDFE1681 PUSH1 0xE0 SHL DUP2 MSTORE SWAP1 MLOAD PUSH14 0xFFFFFFFFFFFFFFFFFFFFFFFFFFFF SWAP4 DUP5 AND SWAP7 POP SWAP3 SWAP1 SWAP2 AND SWAP4 POP PUSH1 0x1 PUSH1 0x1 PUSH1 0xA0 SHL SUB DUP7 AND SWAP3 PUSH4 0xDFE1681 SWAP3 PUSH1 0x4 DUP1 DUP5 ADD SWAP4 DUP3 SWAP1 SUB ADD DUP2 DUP7 DUP1 EXTCODESIZE ISZERO DUP1 ISZERO PUSH2 0x25A JUMPI PUSH1 0x0 DUP1 REVERT JUMPDEST POP GAS STATICCALL ISZERO DUP1 ISZERO PUSH2 0x26E JUMPI RETURNDATASIZE PUSH1 0x0 DUP1 RETURNDATACOPY RETURNDATASIZE PUSH1 0x0 REVERT JUMPDEST POP POP POP POP PUSH1 0x40 MLOAD RETURNDATASIZE PUSH1 0x20 DUP2 LT ISZERO PUSH2 0x284 JUMPI PUSH1 0x0 DUP1 REVERT JUMPDEST POP MLOAD PUSH1 0x0 DUP1 SLOAD PUSH1 0x1 PUSH1 0x1 PUSH1 0xA0 SHL SUB NOT AND PUSH1 0x1 PUSH1 0x1 PUSH1 0xA0 SHL SUB SWAP3 DUP4 AND OR SWAP1 DUP2 SWAP1 SSTORE DUP2 AND SWAP1 DUP10 AND EQ PUSH2 0x2B4 JUMPI DUP1 PUSH2 0x2B6 JUMP JUMPDEST DUP2 JUMPDEST PUSH1 0x1 SSTORE PUSH1 0x0 SLOAD PUSH1 0x1 PUSH1 0x1 PUSH1 0xA0 SHL SUB DUP10 DUP2 AND SWAP2 AND EQ PUSH2 0x2D4 JUMPI DUP2 PUSH2 0x2D6 JUMP JUMPDEST DUP1 JUMPDEST PUSH1 0x2 DUP2 SWAP1 SSTORE PUSH1 0x1 SLOAD DUP8 MUL DUP2 PUSH2 0x2E7 JUMPI INVALID JUMPDEST DIV PUSH1 0x3 DUP2 SWAP1 SSTORE POP DUP3 PUSH1 0x1 PUSH1 0x1 PUSH1 0xA0 SHL SUB AND PUSH4 0xDFE1681 PUSH1 0x40 MLOAD DUP2 PUSH4 0xFFFFFFFF AND PUSH1 0xE0 SHL DUP2 MSTORE PUSH1 0x4 ADD PUSH1 0x20 PUSH1 0x40 MLOAD DUP1 DUP4 SUB DUP2 DUP7 DUP1 EXTCODESIZE ISZERO DUP1 ISZERO PUSH2 0x327 JUMPI PUSH1 0x0 DUP1 REVERT JUMPDEST POP GAS STATICCALL ISZERO DUP1 ISZERO PUSH2 0x33B JUMPI RETURNDATASIZE PUSH1 0x0 DUP1 RETURNDATACOPY RETURNDATASIZE PUSH1 0x0 REVERT JUMPDEST POP POP POP POP PUSH1 0x40 MLOAD RETURNDATASIZE PUSH1 0x20 DUP2 LT ISZERO PUSH2 0x351 JUMPI PUSH1 0x0 DUP1 REVERT JUMPDEST POP MLOAD SWAP9 SWAP8 POP POP POP POP POP POP POP POP JUMP JUMPDEST PUSH1 0x3 SLOAD DUP2 JUMP JUMPDEST PUSH1 0x2 SLOAD DUP2 JUMP INVALID LOG2 PUSH5 0x6970667358 0x22 SLT KECCAK256 PUSH12 0x6CF841C197FD4B0405117E84 0xA6 0x1E PC 0x4E 0xCB PUSH7 0xF92ADA751FE892 0xD6 0xD4 0xBD DUP3 DUP14 DUP15 PUSH5 0x736F6C6343 STOP MOD MOD STOP CALLER "
		},
		"gasEstimates": {
			"creation": {
				"codeDepositCost": "185800",
				"executionCost": "232",
				"totalCost": "186032"
			},
			"external": {
				"getPriceFromUniswap(address,address,uint256)": "infinite",
				"ratio()": "1042",
				"reservesTokenAsCollateral()": "1064",
				"reservesTokenToBorrow()": "998",
				"token0()": "1015"
			}
		},
		"methodIdentifiers": {
			"getPriceFromUniswap(address,address,uint256)": "550e0853",
			"ratio()": "71ca337d",
			"reservesTokenAsCollateral()": "933ee047",
			"reservesTokenToBorrow()": "1f3abecb",
			"token0()": "0dfe1681"
		}
	},
	"abi": [
		{
			"inputs": [
				{
					"internalType": "address",
					"name": "tokenToBorrow",
					"type": "address"
				},
				{
					"internalType": "address",
					"name": "tokenAsCollateral",
					"type": "address"
				},
				{
					"internalType": "uint256",
					"name": "collateralAmount",
					"type": "uint256"
				}
			],
			"name": "getPriceFromUniswap",
			"outputs": [
				{
					"internalType": "address",
					"name": "",
					"type": "address"
				}
			],
			"stateMutability": "nonpayable",
			"type": "function"
		},
		{
			"inputs": [],
			"name": "ratio",
			"outputs": [
				{
					"internalType": "uint256",
					"name": "",
					"type": "uint256"
				}
			],
			"stateMutability": "view",
			"type": "function"
		},
		{
			"inputs": [],
			"name": "reservesTokenAsCollateral",
			"outputs": [
				{
					"internalType": "uint256",
					"name": "",
					"type": "uint256"
				}
			],
			"stateMutability": "view",
			"type": "function"
		},
		{
			"inputs": [],
			"name": "reservesTokenToBorrow",
			"outputs": [
				{
					"internalType": "uint256",
					"name": "",
					"type": "uint256"
				}
			],
			"stateMutability": "view",
			"type": "function"
		},
		{
			"inputs": [],
			"name": "token0",
			"outputs": [
				{
					"internalType": "address",
					"name": "",
					"type": "address"
				}
			],
			"stateMutability": "view",
			"type": "function"
		}
	]
}